:100000000C9432010C945A010C945A010C94AB26B6
:100010000C94AB260C94AB260C945A010C945A0108
:100020000C945A010C945A010C945A010C94EF252B
:100030000C945A010C945A010C945A010C945A01D4
:100040000C94A5250C945A010C945A010C945A0155
:100050000C945A010C945A010C945A010C945A01B4
:100060000C945A010C945A01E8B083E5B08F00E873
:10007000B083E5A4A700E8B083E695B4E68A98E5E6
:100080008FA0E8A792E5BAA600E5889DE5A78BE5D5
:100090008C96E8A792E5BAA600E887AAE5AE9AE4AE
:1000A000B989E58A9FE883BD00E5AE8CE585A8E6C1
:1000B0008993E5BC8000E5BE80E4B88B00E5BE8096
:1000C000E4B88AE694B600E98080E587BAE99A90B8
:1000D000E894BD00E5BC80E590AFE99A90E894BD56
:1000E00000E585B3E997ADE5A0B5E8BDACE6A38032
:1000F000E6B58B00E5BC80E590AFE5A0B5E8BDAC0A
:10010000E6A380E6B58B00E5BC80E69CBAE4B88B3C
:10011000E7BFBB00E5BC80E69CBAE4B88AE7BFBB9A
:1001200000E585B3E997ADE887AAE6A38000E5BCC2
:1001300080E590AFE887AAE6A38000E585B3E9975C
:10014000ADE694B6E59B9E00E68993E5BC80E69417
:10015000B6E59B9E00E8B083E9809F00E7A681E6B4
:10016000ADA2E68C89E992AEE98080E587BA00E528
:100170008581E8AEB8E68C89E992AEE98080E587B2
:10018000BA004F4B3A43550045523A4D5055004541
:10019000523A4D50550045523A4D5055004F4B3A4A
:1001A000434C0045523A4D505500E887AAE58AA8CD
:1001B000E8B083E5B9B300E69585E99A9CE5B7B266
:1001C000E8AFBB00E585B3E997AD00E68993E5BCF0
:1001D00080007C42533A007C494D533A007C4945AB
:1001E000563A007C4952443A007C4552523A007CCF
:1001F00049544D3A007C42544E3A007C4143433AC4
:1002000000414E473A0000000000240027002A0069
:1002100000000000250028002B0000000000230043
:100220002600290004040404040404040202020257
:1002300002020303030303030102040810204080A9
:100240000102040810200102040810200000000828
:10025000000201000003040700000000000000008D
:100260007437FB3711241FBECFEFD8E0DEBFCDBF00
:1002700011E0A0E0B1E0E4E9F7E702C005900D92DB
:10028000A834B107D9F722E0A8E4B1E001C01D927B
:10029000A03CB207E1F711E0C1E3D1E004C021972F
:1002A000FE010E948E3BC033D107C9F70E948A2706
:1002B0000C94BD3B0C940000CF92DF92EF92FF9222
:1002C000DC01A03282E0B807D4F5A53BB10514F0FB
:1002D000A4EBB0E04091BE0228E830E0241B3109D5
:1002E00047FD3395220F331F220F331F6901330F50
:1002F000EE08FF084091BF0228E532E0241B3109D7
:1003000047FD3395220F331F220F331F032E000C9E
:10031000440B550B2C193D094E095F09B7FF02C06C
:10032000B0E0A0E00E94953824EB30E040E050E0DF
:100330000E946B38C20ED31EE41EF51ED601E0915A
:10034000BD02EC3080F52091BE0288E890E0821B6F
:10035000910927FD9395880F991F880F991FA8175A
:10036000B90784F02091BF0288E592E0821B9109D1
:1003700027FD9395880F991F880F991FA817B90714
:100380000CF4CD010297880F991F4FB7F8942E2FC8
:1003900030E0F901EE0FFF1FE20FF31FE756FD4FAC
:1003A000928381834FBFFF90EF90DF90CF900895AD
:1003B0008F929F92AF92BF92CF92DF92EF92FF9275
:1003C0008091BF0258E5C52E52E0D52EC81AD1083B
:1003D00087FDD394CC0CDD1CCC0CDD1C0D2C000C4B
:1003E000EE08FF088091BE0278E8872E912C881ACB
:1003F000910887FD9394880C991C880C991C092CF2
:10040000000CAA08BB088091BD028F3FD1F190E09B
:10041000FC01EE0FFF1FE80FF91FE756FD4F81812A
:10042000928133E0880F991F3A95E1F7B0E0A0E0A0
:1004300044E0B595A795979587954A95D1F702968B
:100440009C012F5F3F4F032E000C440B550B2819C6
:1004500039094A095B09A4EBB0E00E948A38A70178
:100460009601281939094A095B090E946B38C901AC
:10047000FF90EF90DF90CF90BF90AF909F908F90C4
:10048000089590E080E0DCCF80E480937C00809150
:100490007A00806480937A0080917A0086FDFCCF98
:1004A00080917800909179000895833081F028F44C
:1004B000813099F08230A9F008958730A9F0883012
:1004C000C9F08430B1F4809180008F7D03C08091A9
:1004D00080008F7780938000089584B58F7784BDE6
:1004E000089584B58F7DFBCF8091B0008F77809386
:1004F000B00008958091B0008F7DF9CFCF93DF9346
:10050000282F30E0F901E45BFD4F8491F901E85CAC
:10051000FD4FD491F901EC5DFD4FC491CC23A1F0C6
:1005200081110E945502EC2FF0E0EE0FFF1FE65EF6
:10053000FD4FA591B491EC91ED2381E090E009F499
:1005400080E0DF91CF91089580E090E0FACF1F9393
:10055000CF93DF93282F30E0F901E45BFD4F8491C6
:10056000F901E85CFD4FD491F901EC5DFD4FC491B8
:10057000CC23A9F0162F81110E945502EC2FF0E038
:10058000EE0FFF1FE05FFD4FA591B4918FB7F89478
:10059000EC91111108C0D095DE23DC938FBFDF9161
:1005A000CF911F910895DE2BF8CFCF93DF9390E08A
:1005B000FC01E85CFD4F24918C5D9D4FFC01849112
:1005C0008823C9F090E0880F991FFC01EA5FFD4F76
:1005D000A591B491FC01E05FFD4FC591D4916111EB
:1005E0000DC09FB7F8948C91209582238C938881BD
:1005F000282328839FBFDF91CF910895623051F463
:100600009FB7F8943C91822F809583238C93E88147
:100610002E2BEFCF8FB7F894EC912E2B2C938FBF0E
:10062000EACF3FB7F8948091300290913102A091C7
:100630003202B091330226B5A89B05C02F3F19F0B6
:100640000196A11DB11D3FBFBA2FA92F982F882752
:10065000BC01CD01620F711D811D911D42E0660F2D
:10066000771F881F991F4A95D1F708958F929F92FF
:10067000AF92BF92CF92DF92EF92FF924B015C015B
:100680000E9411036B017C010E9411036C197D090A
:100690008E099F09683E734081059105A8F321E00A
:1006A000821A9108A108B10888EEC80E83E0D81E0E
:1006B000E11CF11C81149104A104B10429F7FF90FD
:1006C000EF90DF90CF90BF90AF909F908F90089564
:1006D0002FB7F89460912C0270912D0280912E0218
:1006E00090912F022FBF0895CF92DF92EF92FF9249
:1006F0000E9468036B017C018091BC0087FD13C0E0
:100700000E9468036C197D098E099F096330710589
:100710008105910588F31092BC0080E0FF90EF9076
:10072000DF90CF90089581E0F9CFCF92DF92EF92E2
:10073000FF920F931F93CF93DF93C0912F01D0911E
:100740003001D7FD26C020919802243610F59E0175
:10075000281B390B2E5F3F4F25303105D0F08C011F
:100760000E946803C0909402D0909502E090960297
:10077000F09097026C197D098E099F0997FF19C0A7
:10078000DF91CF911F910F91FF90EF90DF90CF906D
:100790000895109293029093300180932F01DF917E
:1007A000CF911F910F91FF90EF90DF90CF900C941D
:1007B0005C018FEF9FEFC017D10714F481E090E048
:1007C000C80FD91FD0933001C0932F01CE010E94D2
:1007D0005C0181E00C171D0709F480E0809393020F
:1007E0000E946803AB01BC012091980288E790E069
:1007F000A0E0B0E0821B9109A109B109840F951F07
:10080000A61FB71F8093940290939502A09396021F
:10081000B0939702B5CFAF92BF92CF92DF92EF9293
:10082000FF920F931F93CF93DF936C017B018B019A
:10083000040F151FEB015E01AE18BF08C017D107EA
:1008400059F06991D601ED91FC910190F081E02D74
:10085000C6010995892B79F7C501DF91CF911F91C9
:100860000F91FF90EF90DF90CF90BF90AF900895E1
:100870002091990130919A012817390771F49091CC
:10088000970180919801981741F0E0919701F0E06D
:10089000EB5AFE4F808190E008958FEF9FEF08950F
:1008A0000895EF92FF920F931F93CF93DF93DC0194
:1008B0005C96ED90FC905D97E114F10479F481E091
:1008C00090E013969C938E93129790E080E0DF91D6
:1008D000CF911F910F91FF90EF9008955196ED9158
:1008E000FC91529750968C915097982F90950FB7F6
:1008F0005E962C915E97122F127021FD6095F894F0
:100900002081112319F1282B2083E7012197F1F78A
:1009100028E0462F50E0308160FF1AC0382B30832A
:10092000E7012197F1F7BA0175956795215089F78D
:10093000112381F08081892380830FBF5C968D9184
:100940009C910197F1F781E090E0C1CF2923DCCFA2
:100950003923E5CF9081892BEFCFEF92FF920F9350
:100960001F93CF93DF938C017B01D0E0C0E0F701B0
:10097000EC0FFD1F6491662339F0C8010E945104F9
:10098000892B11F02196F3CFCE01DF91CF911F91EA
:100990000F91FF90EF9008952091990130919A0165
:1009A0002817390761F4809198012091970190E010
:1009B000805C9F4F821B91098F739927089590E067
:1009C00080E008952091990130919A012817390704
:1009D000B9F49091970180919801981789F0E0916E
:1009E0009701F0E0EB5AFE4F80812091970130E0B3
:1009F0002F5F3F4F2F7333272093970190E0089587
:100A00008FEF9FEF089590E080E008950E946803C3
:100A10006A567F4F8F4F9F4F609334027093350219
:100A200080933602909337020895809161029091ED
:100A30006202039769F060919B01613051F062306E
:100A400039F0809161029091620261E0892B09F096
:100A500060E08CE00C94A7028093BB0084E8809354
:100A6000BC000E947403882369F09091B900987FBC
:100A700081E0983131F0983229F0903419F080E01B
:100A800008950895089584EA8093BC000E94740339
:100A9000882351F09091B900987F81E0983021F03F
:100AA000903111F080E008950895CF92DF92EF9297
:100AB000FF9284E98093BC000E9468036B017C0173
:100AC0008091BC0084FF0DC00E9468036C197D09F1
:100AD0008E099F09633071058105910588F3109295
:100AE000BC00FF90EF90DF90CF900895CF930E94CD
:100AF0004305811104C0CFEF8C2FCF910895C09191
:100B000031018C2F880F0E942C05811103C00E9497
:100B10005505F1CF85E70E942C058823C1F30E947B
:100B20004305882341F38C2F880F81600E942C0598
:100B3000882369F384E88093BC000E9474038823AF
:100B4000D1F2C091BB000E945505D6CF8F929F92E3
:100B5000AF92BF92CF92DF92EF92FF921F93CF930B
:100B6000DF9300D000D000D0CDB7DEB75C016B01C1
:100B70007A010E944305811113C080E026960FB6CA
:100B8000F894DEBF0FBECDBFDF91CF911F91FF90D4
:100B9000EF90DF90CF90BF90AF909F908F9008958F
:100BA00010913101812F880F0E942C05811103C003
:100BB0000E945505E2CF8BE30E942C058823C1F3E8
:100BC0000E9443058823C9F2812F880F81600E940B
:100BD0002C05882369F3CE0101964C0110E084ECCA
:100BE000153009F484E88093BC000E9474038823C4
:100BF00029F28091BB00F40181934F011F5F1630F1
:100C000071F70E94550589819A819827892798272D
:100C1000F501918380838B819C8198278927982770
:100C2000F601918380838D819E819827892798275B
:100C3000F7019183808381E0A1CFCF93DF93D82FF9
:100C4000C62F0E944305882349F080913101880F07
:100C50000E942C05811104C00E94550581E00DC041
:100C60008D2F0E942C058823B9F38C2F0E942C0510
:100C7000882391F30E94550580E0DF91CF9108957C
:100C8000CF93A89588E6809331010E944305811196
:100C900003C080E0CF91089580ED0E942C05C82FFD
:100CA0000E945505CC23A9F360E08BE60E941D0647
:100CB0008111EFCF63E070E080E090E00E943603A6
:100CC000A8950E947605883611F0803711F760E00C
:100CD0008BE60E941D068111DCCF63E070E080E0AE
:100CE00090E00E94360369E089E10E941D068111AF
:100CF000D0CF65E08AE10E941D068111CACF60E174
:100D00008CE10E941D068111C4CF0E9476058836B1
:100D100019F0803709F0BDCF81E080931002109266
:100D20000B02B8CF60E08AE00E94A70260E088E092
:100D30000C94A70260E088E00E94A70261E08AE0CC
:100D40000C94A70220912F013091300137FD08C08B
:100D5000281B390B2D5F3F4F81E02730310508F00C
:100D600080E00895CF93DF93EC010E94A2068823D0
:100D7000A1F080916102909162022091080130916E
:100D800009012817390741F481E0209106013091CB
:100D900007012C173D0709F080E0DF91CF910895FE
:100DA00020916102309162022330310509F11092E5
:100DB00093021092220210922302109224021092A7
:100DC000250221E0209338022FEF3FEF30930901F5
:100DD000209308019C01853B910514F024EB30E041
:100DE00037FF02C030E020E0309307012093060176
:100DF00008951092930210922202109223021092F0
:100E000024021092250208958FEF9FEF909309011D
:100E100080930801909307018093060110923B0292
:100E200010922202109223021092240210922502A4
:100E3000109234021092350210923602109237024C
:100E400010929302089580911F0281110DC080912C
:100E5000290281110BC08091B801813039F0909145
:100E6000B80181E0923019F080E0089581E00895A2
:100E7000CF92DF92EF92FF920E942307811120C050
:100E8000C090FA01D090FB01E090FC01F090FD01D0
:100E9000C114D104E104F10499F00E946803DC015B
:100EA000CB018C199D09AE09BF098827B7FD839531
:100EB0009927AA27BB27FF90EF90DF90CF90089546
:100EC00080E0F9CF8091380281111CC0809193029B
:100ED000811118C080913C0290913D0218161906AC
:100EE0008CF080912F0190913001853B910548F065
:100EF0000E94D801853B910520F0809139029091A4
:100F00003A0208950E94D801853B910550F7089553
:100F100080912E0181110C9462070E94D801853BBB
:100F20009105C8F708950F931F9382E00E947E02F7
:100F3000019751F01092A7011092A8011092A901F7
:100F40001092AA0120E028C00E9468030091A70126
:100F50001091A8012091A9013091AA01012B022B27
:100F6000032B41F46093A7017093A8018093A9011A
:100F70009093AA010091A7011091A8012091A901C5
:100F80003091AA01601B710B820B930B21E06A3F29
:100F9000710581059105B0F2822F1F910F9108957F
:100FA0000F931F9382E00E947E02019751F41092EA
:100FB000AB011092AC011092AD011092AE0120E095
:100FC00028C00E9468030091AB011091AC012091F0
:100FD000AD013091AE01012B022B032B41F4609344
:100FE000AB017093AC018093AD019093AE01009181
:100FF000AB011091AC012091AD013091AE01601BAD
:10100000710B820B930B21E0683C71058105910502
:10101000B0F2822F1F910F9108950E942307282F6D
:1010200081110CC08091610290916202039739F0A6
:1010300082E00E947E0221E0019709F020E0822FE9
:1010400008950F931F938091E7019091E801A0917B
:10105000E901B091EA01892B8A2B8B2BC9F00E9400
:1010600068030091E7011091E8012091E9013091B6
:10107000EA01DC01CB01801B910BA20BB30B88278B
:10108000B7FD83959927AA27BB271F910F91089534
:1010900080E0FBCF0F931F930E942108882319F152
:1010A0008091B0019091B101A091B201B091B301D2
:1010B000892B8A2B8B2BB1F00E9468030091B00121
:1010C0001091B1012091B2013091B301AB01BC018B
:1010D000401B510B620B730B81E04031574261059D
:1010E000710508F080E01F910F9108958091B00183
:1010F0009091B101A091B201B091B301892B8A2BDB
:101100008B2B11F00C94210880E008951092E701D8
:101110001092E8011092E9011092EA0181E08093B7
:10112000E6011092B0011092B1011092B20110923A
:10113000B30108951092E7011092E8011092E901BD
:101140001092EA011092E6011092B0011092B101E2
:101150001092B2011092B30108950E946803609347
:10116000B0017093B1018093B2019093B301605FBD
:10117000784D8F4F9F4F6093E7017093E801809304
:10118000E9019093EA011092E6010895CF92DF926F
:10119000EF92FF92C0909D01D0909E01E0909F0140
:1011A000F090A001C114D104E104F10441F00E94C7
:1011B000680321E06C157D058E059F0508F020E091
:1011C000822FFF90EF90DF90CF900895CF92DF9223
:1011D000EF92FF920E9468036B017C010E94C60897
:1011E000882341F061E089E0FF90EF90DF90CF909D
:1011F0000C94A70280916102909162020397C1F45E
:1012000080911B028823A1F01092E7011092E8015F
:101210001092E9011092EA011092E6011092B001D9
:101220001092B1011092B2011092B30160E0DBCFD5
:101230000E942307811113C08091E7019091E8017A
:10124000A091E901B091EA01892B8A2B8B2BB9F48B
:101250008091E601811124C00E942108C3CF82E061
:101260000E947E02892B41F71092E7011092E8015B
:101270001092E9011092EA011092E601D7CF809115
:10128000E7019091E801A091E901B091EA01C81A43
:10129000D90AEA0AFB0AF7FCDBCF0E948608D8CFFE
:1012A00082E00E947E02892BB9F6C0CF833008F01D
:1012B00081E0809310019DE2899F90011124205EBE
:1012C0003C4F30930F0120930E0129E333E0882334
:1012D00031F02EE833E0813011F426E633E030932C
:1012E0000D0120930C0194E0981B90930B01823028
:1012F00009F083E080930A0108951092BE011092D4
:10130000BD01109248011092490110924A011092B9
:101310004B01089510924C0110924D0110924E0114
:1013200010924F011092B9011092BA011092BB01B4
:101330001092BC010C947D090E94680360934C01DB
:1013400070934D0180934E0190934F016093B901CA
:101350007093BA018093BB019093BC016093B40178
:101360007093B5018093B6019093B7010C947D09F9
:101370000E9444020C9444028091390290913A02F6
:101380000A9797FF02C090E080E008958091A20143
:10139000811102C00C94BC098091390290913A02EB
:1013A00008958091A201882349F00E94D0078823E4
:1013B00029F08091390290913A02089580911C029F
:1013C00081110C94C6090C94BC098091AF01811164
:1013D0000AC0209161023091620281E02130310522
:1013E00019F080E0089581E008958091A2018111B3
:1013F0000AC02091CD013091CE0181E0213031052C
:1014000019F080E0089581E008958091A301882378
:1014100071F08091A301813051F02091C101309190
:10142000C20181E02130310539F080E005C09091A2
:10143000A30181E09130C9F70895CF92DF92EF9236
:10144000FF9280911C02882311F080E027C08091D8
:101450001F028111FACF0E94050A8823B1F38091FF
:101460009802843690F3C0904C01D0904D01E090EA
:101470004E01F0904F01C114D104E104F10429F3AD
:101480000E946803AB01BC014C195D096E097F091C
:1014900081E04131574261057105B8F6FF90EF9048
:1014A000DF90CF90089580911F02882311F080E093
:1014B00021C080911C028111FACF80913B028823C8
:1014C00081F080912E01882361F080914C019091F0
:1014D0004D01A0914E01B0914F01892B8A2B8B2B8E
:1014E00031F30E94050A882311F39091980281E05C
:1014F0009436E8F20895CF93DF9380916102909142
:101500006202892B21F080E0DF91CF9108958091D4
:101510009302811127C08091220290912302A09111
:101520002402B0912502892B8A2B8B2BD9F4809130
:101530001F02811112C00E94D109EC010E9488078C
:1015400097FD05C08C1B9D0B03960797E0F2CE011B
:101550000E94A20691E08927D7CFC0913902D0918D
:101560003A02ECCF81E0D0CF80916102909162028B
:101570000197F9F48091610290916202019719F547
:101580008091930281111DC08091220290912302CB
:10159000A0912402B0912502892B8A2B8B2B89F4F0
:1015A00080912002909121020E94A20691E0892759
:1015B00008958091610290916202892B21F40C942C
:1015C0007B0A81E0089580E0089580916102909106
:1015D00062020397C1F08091610290916202892BAF
:1015E00059F08091610290916202019729F08091F7
:1015F00061029091620208950E94B40A8823B9F3AF
:1016000082E090E0089583E090E008958F929F92A9
:10161000AF92BF92CF92DF92EF92FF920F931F9300
:101620008091A401811134C08091C9019091CA01B7
:10163000A091CB01B091CC01892B8A2B8B2B31F15E
:101640000E9468030091C9011091CA012091CB0149
:101650003091CC01C090C501D090C601E090C70187
:10166000F090C8014B015C01801A910AA20AB30AEA
:1016700095018401B701A6014E5C5F4F6F4F7F4F0C
:1016800081E0041715072607370718F080E001C02E
:1016900081E01F910F91FF90EF90DF90CF90BF906E
:1016A000AF909F908F900895809161029091620217
:1016B000039709F472C0109234021092350210920E
:1016C00036021092370261E08BE00E94A7028091FF
:1016D0002E01882309F461C08091BD028C3008F08E
:1016E00051C061E084E00E94D5028091BD02282FA4
:1016F00030E0F901EE0FFF1FE20FF31FE756FD4F39
:101700009081907C946090831092BE021092BF02F0
:101710002CE0622F0E94673B829FB001112430E0D1
:1017200020E0AB01420F531FFA01EE0FFF1FE40F41
:10173000F51FE756FD4F908196FD16C02F5F3F4F76
:101740002C30310571F781110FC01092800082E0BA
:10175000809381001092850010928400B19A80914C
:101760006F00826080936F00E091BD028E2F90E049
:10177000FC01EE0FFF1FE80FF91FE756FD4F8081B8
:101780008064808310922E0180912F01909130010E
:10179000853B910510F40C945C010895CF93DF9381
:1017A000853B910514F084EB90E0EC0197FF02C0BB
:1017B000D0E0C0E0D0933001C0932F01809161024E
:1017C000909162029093090180930801D0930701E0
:1017D000C093060180912E01811115C00E94D8018D
:1017E000853B910548F48C1B9D0B97FF03C0919599
:1017F0008195910903971CF0CE010E945C01DF9155
:10180000CF910C940605DF91CF91089560E08BE0B5
:101810000C94A702E091BD028E2F90E0FC01EE0F28
:10182000FF1FE80FF91FE756FD4F80818F7B8083F4
:1018300081E080932E0110923402109235021092B2
:101840003602109237020C94060CCF93C62F682FE5
:1018500088E00E94A7026C2F8AE0CF910C94A70227
:101860000E94760860E0811124C08091B801813027
:1018700019F18091B801823079F080919C01823019
:10188000D9F080912902811107C080913C0290918A
:101890003D02181619060CF50E94680328E131E094
:1018A00040E050E00E949D3860E081E020FD02C0F1
:1018B00061E080E00C94250C60E08AE00E94A702C1
:1018C0000E94680324EB30E040E050E00E949D3825
:1018D000622F617088E00C94A70208950E94C608E8
:1018E00061E081111DC00E947608882319F060E034
:1018F00080E017C00E94230781112CC080913C0218
:1019000090913D02181619062CF180916102909178
:101910006202039761F30E943807882321F060E098
:1019200081E00C94250C80911F0281110AC00E9455
:10193000D007811108C080916102909162020197E5
:10194000B1F661E0D5CF8091CD019091CE010197A4
:1019500091F3CDCF0895CF93DF930E94F906809144
:101960002802811110C08091260281110CC01092B2
:101970003E0210923F0210924002109241021092D9
:101980003D0210923C0210921B0210921F020E9414
:101990008807EC01853B910550F0C0912F01D09153
:1019A0003001C53BD10518F00E94D109EC0110921D
:1019B0006202109261020E946E0C81E080933802F4
:1019C00010923B020E940407D0933001C0932F0174
:1019D0001092D3011092D4011092D5011092D60129
:1019E000DF91CF9108951F93CF93DF93182F0E941B
:1019F000BC09EC01112309F485C08091610290912A
:101A00006202892B09F051C08091930281114DC06F
:101A1000CE010E94B206882309F447C0DF91CF911E
:101A20001F9108958091080190910901892B09F077
:101A300048C08091060190910701C817D90709F0A5
:101A400040C0ECCF0E948807C81BD90B23970CF02D
:101A50009AC0E4CF80919302811137C08091220215
:101A600090912302A0912402B0912502892B8A2B08
:101A70008B2B59F510925101109252011092530183
:101A8000109254010E94530A882329F010923B02BD
:101A90000E949C0978C00E94050A882309F473C03B
:101AA00080919802843690F76EC080916102909187
:101AB0006202892B31F4CE010E94B206882309F418
:101AC000B1CF80913802882329F20E947D091092BB
:101AD0003E0210923F021092400210924102109278
:101AE0002802109227020E9468036E537E4F8F4F88
:101AF0009F4F6093510170935201809353019093D3
:101B00005401C0CF0E948A090E94F5098823D1F0B0
:101B100082E00E947E02892BA9F481E080931C025E
:101B20000E948A0910923E0210923F0210924002D7
:101B30001092410210923D0210923C021092BE019E
:101B40001092BD010E94C609EC0180916102909142
:101B50006202892BC1F480919302811114C0CE01DD
:101B60000E94B206882379F00E9488078C1B9D0B87
:101B7000181619060CF066CF0E9488078C1B9D0B67
:101B800003970CF44BCF809161029091620203970E
:101B900009F444CFDF91CF911F910C94AB0C80914D
:101BA000610290916202039719F081E00C94F30CAA
:101BB00008950F931F93CF93DF93C82F80916102F5
:101BC000909162020197D1F4CC2359F08091610287
:101BD000909162020397A9F4DF91CF911F910F9129
:101BE000089580912002909121020E94B2068111F5
:101BF000F3CF0E940D088111E9CFEECFC111E6CFDE
:101C0000F8CF80913802811186C0809193028111B2
:101C100082C08091220290912302A0912402B0916F
:101C20002502892B8A2B8B2B09F075C0CC2309F454
:101C300069C00E94F906C1110AC010923E021092BA
:101C40003F0210924002109241021092280210921C
:101C50001F020E9488078C01853B910558F0009176
:101C60002F0110913001053B110520F00091390240
:101C700010913A0281E090E09093620280936102B9
:101C8000D1E0D093AF010E946E0C0E940407109225
:101C90003B021093300100932F01D09338020E9431
:101CA000530A882331F1C1110CC010923E021092E8
:101CB0003F02109240021092410210923D02109297
:101CC0003C020E9468036093B9017093BA0180934B
:101CD000BB019093BC0110924801109249011092EF
:101CE0004A0110924B011092BE011092BD010E9458
:101CF0009C091092D3011092D4011092D501109238
:101D0000D6016ACF109251011092520110925301E4
:101D1000109254018ECFC1118CCF0E947D09109278
:101D20003D0210923C0210923E0210923F0210922D
:101D300040021092410210922802109227020E9443
:101D40006803605E7C4F8F4F9F4F6093510170938B
:101D5000520180935301909354016BCF0F931F93C3
:101D6000CF9382E00E947E028C01C1E0019709F0CE
:101D7000C0E08091610290916202039769F48091C2
:101D8000A501C0931101811103C081E08093A501D9
:101D9000CF911F910F91089580911E028111F8CF6C
:101DA0008091A501811105C0C093110181E080934C
:101DB000A5010E949307882359F01092A601109262
:101DC0001D0281E08093AF0110922A0210921C0242
:101DD0000E94C6088111C2C080911101882369F058
:101DE0000130110551F00E942307811106C01092A5
:101DF000A6010E94AD080E94E6080E94D007882331
:101E000081F18091A60181112CC00E94E5098823EF
:101E100041F181E08093A6010E94230781111FC038
:101E20000E94F509882331F080916102909162024D
:101E3000039759F40E94F509811184C00E94F509A5
:101E400081110DC00E946E0C0AC0809161029091B8
:101E50006202892B09F44DC080E00E94F30C0E94BD
:101E6000E6080E94C608811120C00E942307811144
:101E70001CC00E94D0078823C1F08091AF01882345
:101E8000A1F08091E7019091E801A091E901B09162
:101E9000EA01892B8A2B8B2B41F48091E601811179
:101EA00004C00E94AD080E94E6080E9493078823A0
:101EB000E9F00E947608811104C08091E601882330
:101EC000A9F08091610290916202039709F05EC0CF
:101ED0000E942108811104C08091E601882321F02D
:101EE0000E949A080E94E6080E94E608C093110129
:101EF0004FCF8091A201882309F4B1CF0E948807B7
:101F00002091390230913A02821B930B1816190660
:101F100064F40E9488072091390230913A02821BB2
:101F2000930B03970CF49BCF97CF0091390210913C
:101F30003A020E948807081B190B033011050CF0A8
:101F40008BCF8DCF8091610290916202892B09F431
:101F500075CF809161029091620270CF0E94D0078C
:101F6000882309F47ECF8091A60181117ACF0E9447
:101F7000E509882309F475CF0E94F509882309F43F
:101F800070CF80916102909162026BCF85EA80935D
:101F9000C0028091610290916202039739F48091AE
:101FA0001B02882319F087EA8093C00261E089E070
:101FB0000E94D50261E089E00E94A702F89414BE55
:101FC0000FB6F894A89580916000886180936000B6
:101FD000109260000FBE0C940000FFCFBC0183E69E
:101FE00092E00E94353821E0892B09F020E0822F11
:101FF00008958F929F92AF92BF920F931F93CF93AA
:10200000DF93CDB7DEB7A1970FB6F894DEBF0FBE52
:10201000CDBF19A2423008F44AE08E010F5D1F4F78
:10202000842E912CB12CA12CA50194010E949D38E5
:10203000E62FB901CA01EA3044F5E05DD801EE931C
:102040008D01232B242B252B79F790E080E010972E
:1020500069F0FD0101900020E9F73197AF014A1BBB
:102060005B0BBD0182E492E00E940B04A1960FB6C7
:10207000F894DEBF0FBECDBFDF91CF911F910F91BE
:10208000BF90AF909F908F900895E95CD7CF42E0CA
:1020900050E064E471E00C940B04CF93DF93BC0137
:1020A00082E492E00E94AD04EC0182E492E00E949E
:1020B00047108C0F9D1FDF91CF910895E3E6F2E06A
:1020C00001900020E9F7E456F2408E2FFF27ED59EA
:1020D000FD4F882389F092919D3031F09A3021F0A4
:1020E000903211F0933239F48150A82FB0E0AD59FD
:1020F000BD4F1C92EECF80E0682F70E06D597D4F90
:10210000FB019081903221F09D3011F09A3011F452
:102110008F5FF2CF882351F001900020E9F7AF01E3
:10212000461B570B83E692E00C94943B0895CF92A4
:10213000DF92EF92FF92CF93DF936C01990FEE083D
:10214000FF08F7FE19C06DE282E492E00E9451049C
:10215000EC0166277727CB016C197D098E099F0951
:102160004AE00E94F90F8C0F9D1FDF91CF91FF90E5
:10217000EF90DF90CF9008954AE0C701B601DF915C
:10218000CF91FF90EF90DF90CF900C94F90F0F93C9
:102190001F93CF93DF938C01EB010E945538888306
:1021A000C80101960E9455388983CE01DF91CF91F5
:1021B0001F910F910895CF93DF93EB010E94553843
:1021C0008883CE01DF91CF9108950C945538FF920A
:1021D0000F931F93CF93DF93EC01F62E08811981A3
:1021E000C8010E945538F81621F06F2DC8010E94D1
:1021F0005D38CE01DF91CF911F910F91FF9008952F
:10220000EF92FF920F931F93CF93DF9300D0CDB740
:10221000DEB78C017B019A838983FB016081CE014B
:1022200001960E94E7100F5F1F4F1A830983F70181
:102230006181CE0101960E94E710C7010F900F90B7
:10224000DF91CF911F910F91FF90EF9008950F9321
:102250001F93CF93DF9300D0CDB7DEB78B019A8366
:102260008983FB016081CE0101960E94E710C801BD
:102270000F900F90DF91CF911F910F910895CF9301
:10228000DF931F92CDB7DEB71092B8011982BE015D
:102290006F5F7F4F87E190E00E9427110F90DF91E1
:1022A000CF9108959091B801923071F0823021F071
:1022B0009091B801911108C08093B80168EB71E06A
:1022C00087E190E00C9427110895CF93DF9300D01D
:1022D000CDB7DEB79A838983CE0101960E94E710BD
:1022E0000F900F90DF91CF91089564EB88E290E01A
:1022F0000C94651180910E0190910F0188359240E8
:1023000034F488E592E090930F0180930E01809160
:102310000E0190910F018115944034F08FEF93E0FE
:1023200090930F0180930E0180910C0190910D010B
:102330008835924034F488E592E090930D018093C3
:102340000C0180910C0190910D018115944034F0A5
:102350008FEF93E090930D0180930C0180910B011E
:102360008150883018F083E080930B0180910A013E
:102370008150883018F083E080930A016EE071E0AC
:102380008EE390E00E9400116CE071E080E490E048
:102390000E94001160910B0182E490E00E9465119F
:1023A00060910A0183E490E00E9465116091100140
:1023B0008DE390E00E9465110C9475114F925F922D
:1023C0006F927F928F929F92AF92BF92CF92DF9245
:1023D000EF92FF920F931F93CF93DF93CDB7DEB7AA
:1023E000A0970FB6F894DEBF0FBECDBF0E945E105F
:1023F000009163020023A9F18BEC91E00E94EE0FA3
:10240000182F811105C084EC91E00E94EE0F182F67
:10241000023409F05FC0809164028B34C9F5809169
:1024200065028111A9C00E94230781110EC00E947C
:10243000680368517C4F8F4F9F4F6093FA017093F0
:10244000FB018093FC019093FD01112351F00E9448
:1024500068036093C9017093CA018093CB01909384
:10246000CC01A0960FB6F894DEBF0FBECDBFDF91B2
:10247000CF911F910F91FF90EF90DF90CF90BF9081
:10248000AF909F908F907F906F905F904F90089546
:10249000833509F071C09091650260ED690F6A3073
:1024A00008F06AC080916602882359F0913309F0E0
:1024B00063C0803309F060C08091670281115CC005
:1024C0006AE060931A018CE390E00E9465110E941B
:1024D0007511BBCF033509F091C08091640283353B
:1024E00079F4809165028053833008F045C0909163
:1024F0006602911141C00E9456090E947A11A5CF2F
:102500008035D1F58091650280538A30A8F5A5E623
:10251000B2E030E020E0E0E04AE08D9190ED980FED
:102520009A30B0F4429FB001439F700D1124082EE1
:10253000000C990BC0979C01260F371F203157E2E2
:102540003507D4F49E2F02C030E020E0E92FE5CF1C
:10255000E43008F0D3C491E09E0FF0E0EE0FFF1FCF
:1025600061E070E06C0F7D1FE60FF71F3183208361
:102570008C32B1F4943041F787EB91E00E94EE0F7A
:10258000882309F441C20E943F111092D301109296
:10259000D4011092D5011092D6010E941F1855CF78
:1025A000E92FE43049F78111E7CF69817A81CB01C6
:1025B00088559240883A9140F8F64B815C81CA0177
:1025C00088559240883A9140B8F62D813E81C901E4
:1025D0000197089788F68F819885FC013197389785
:1025E00058F670930F0160930E0150930D014093C4
:1025F0000C0120930B0180930A017FCF0C34F9F476
:102600008091640290ED980F923018F0813409F0B7
:10261000B3CF909165029111AFCF61E0813321F08A
:1026200062E0803309F060E060939B018FE290E00C
:102630000E9465110E9475110E94150506CF033492
:1026400009F09ACF809164028C3409F051C08091D6
:102650006502811191CF80911002811105C083EA3A
:1026600091E00E944D10F1CEC090EB01D090EC01B2
:10267000E090ED01F090EE0120E030E0A901C7010B
:10268000B6010E943B3987FF04C0F7FAF094F7F8CF
:10269000F09420E030E040E251E4C701B6010E942E
:1026A0009F3A20E030E040E05FE30E94CF380E9494
:1026B000B23970931901609318014091160150913D
:1026C00017019A012D5E3F4F2617370734F0CA01D4
:1026D0004496909319018093180168E171E089E2B2
:1026E00090E00E9400110E9475118DE991E0B9CF30
:1026F000853509F041CF8091650281113DCF8091F0
:102700001002811103C086E991E0ABCF0E94B40AA8
:102710008111FFC0809193028111FBC000913802AA
:102720000111F7C084E0F82E1D8E1E8E1F8E18A298
:10273000812C912C5401412C512C3201AE014F5F60
:102740005F4FBE01675E7F4FCE014B960E94A6058C
:10275000882339F18B8D9C8D092E000CAA0BBB0BA5
:10276000480E591E6A1E7B1E898D9A8D092E000CFB
:10277000AA0BBB0B880E991EAA1EBB1E89819A81CB
:10278000092E000CAA0BBB0B4D8D5E8D6F8D78A1B1
:10279000480F591F6A1F7B1F4D8F5E8F6F8F78A365
:1027A0000F5FA895FA94F110C9CF023048F4109247
:1027B0000A0280910A028111AFC088E891E051CFEE
:1027C000602F70E090E080E00E94E8396B017C01AE
:1027D000C301B2010E94EA39A70196010E94403963
:1027E0002B013C01C501B4010E94EA39A701960101
:1027F0000E9440394B015C016D8D7E8D8F8D98A1BB
:102800000E94EA39A70196010E9440396D8F7E8FA0
:102810008F8F98A3A3019201C301B2010E949F3A36
:102820006B017C01A5019401C501B4010E949F3A8E
:102830009B01AC01C701B6010E94CF386B017C013E
:102840002D8D3E8D4F8D58A1CA01B9010E949F3A2E
:102850009B01AC01C701B6010E94CF380E94123B18
:102860006B017C012DEC3CEC4CEC54E40E943B39B8
:1028700087FD9DCF26E636E646EE55E4C701B60154
:102880000E949A3A18160CF492CFA7019601C30140
:10289000B2010E9440396093060270930702809350
:1028A000080290930902A7019601C501B4010E9494
:1028B0004039609302027093030280930402909364
:1028C0000502A70196016D8D7E8D8F8D98A10E94C6
:1028D00040396093290170932A0180932B019093D2
:1028E0002C0181E080930A0280E090E0A0E8BFE341
:1028F0008093250190932601A0932701B09328018E
:102900008093210190932201A0932301B09324018D
:1029100050CF8FE891E0A5CE20E030E04AE754E4C4
:10292000609106027091070280910802909109025D
:102930000E949F3A0E94B2397A836983BE016F5F19
:102940007F4F82E390E00E94001120E030E04AE7F0
:1029500054E460910202709103028091040290910C
:1029600005020E949F3A0E94B2397A836983BE01B0
:102970006F5F7F4F84E390E00E94001120E030E021
:102980004AE754E46091290170912A0180912B015A
:1029900090912C010E949F3A0E94B2397A836983F8
:1029A000BE016F5F7F4F86E390E00E94001161ECF3
:1029B00080E390E00E9465111092EB011092EC010F
:1029C0001092ED011092EE0180E090E0A0E8B0E4FA
:1029D0008093120190931301A0931401B0931501F9
:1029E00082E080932D0183E290E090931701809321
:1029F000160166E171E08BE290E00E9400110E94F6
:102A0000751182E891E02DCE8AEA91E00E94EE0FE6
:102A1000882319F00E94011B18CD083469F48091B5
:102A200064028053823008F062C080916502811197
:102A30005EC00E94531A09CD003541F590916402A1
:102A400080ED890F823008F052C0809165028111BB
:102A50004EC081E0913309F080E08093A20162EAE8
:102A600071E08FE090E00E9427118091A2018823FD
:102A700001F381E090E09093CE018093CD016DEC65
:102A800071E085E090E00E940011D3CF0C34D9F4BE
:102A900080916402863459F59091650280ED890F2A
:102AA000823028F580916602811121C081E0913346
:102AB00009F080E08093A10161EA71E084E490E094
:102AC0000E942711B6CF053591F4809164028235BA
:102AD00071F48091650281110AC0109229020E944E
:102AE0003F1181E080939C010E948A1CAECC8FE64E
:102AF00091E00E94EE0F882351F081E08093D8018D
:102B000068ED71E08CE190E00E94271192CF8CE596
:102B100091E00E94EE0F882319F01092D801F0CFB7
:102B200047E150E065E571E0CE0101967C010E942D
:102B30003E38188EF70101900020E9F731976F01B8
:102B4000CE18DF08A601B70183E692E00E94A63BFB
:102B5000892BC1F4C6018D599D4F0E94173897FDEE
:102B600011C08536910514F084E690E08A30910515
:102B700014F48AE090E08093980268E972E089E1B9
:102B800090E0C2CF88E491E00E94EE0F882379F0B4
:102B900081E090E09093CE018093CD016091CD01D2
:102BA0007091CE0185E090E00E94951A4ECC8BE3A7
:102BB00091E00E94EE0F882329F01092CE0110922E
:102BC000CD01ECCF8EE291E00E94EE0F882379F0E8
:102BD00081E090E09093C2018093C1010E943F1177
:102BE0006091C1017091C20187E090E0DDCF81E288
:102BF00091E00E94EE0F882369F01092C2011092BA
:102C0000C1010E943F111092BE011092BD010E94AD
:102C10008A09E6CF84E191E00E94EE0F882361F0FB
:102C20001092C0011092BF011A821982B70189E087
:102C300090E00E940011FDCE87E091E00E94EE0F2F
:102C4000882349F081E090E09093C0018093BF0118
:102C50009A838983EBCF84EF90E00E94EE0F882364
:102C600041F081E08093A30163EA71E08DE190E09F
:102C70004BCF81EE90E00E94EE0F882319F0109266
:102C8000A301F2CF84EC91E00E94EE0F882351F073
:102C90008091610290916202039709F4D6CB0E9461
:102CA000CF0DD3CB0E9423078111CFCB84ED90E0D1
:102CB0000E94EE0F882389F0809161029091620258
:102CC000039709F4C2CB809161029091620203974D
:102CD00009F4BBCB0E942324B8CB87EC90E00E9480
:102CE000EE0F882351F08091610290916202039768
:102CF00009F0ABCB0E949B25A8CB809161029091FB
:102D00006202039709F4A1CB8BEC91E00E94EE0FD5
:102D1000882381F00E940D08882309F496CB8091C6
:102D2000610290916202019709F48FCB80E00E94CA
:102D3000D90D8BCB8DEB90E00E94EE0F8823E1F153
:102D40008091610290916202039751F081E090E0DE
:102D5000909362028093610210923B020E946E0C7B
:102D60000E94D801853B9105ACF084EB90E09093F4
:102D700021028093200260E272E081E090E00E94F4
:102D800000111092D3011092D4011092D50110922B
:102D9000D6015BCB80912002909121020296909304
:102DA0002102809320020E940407809120029091CA
:102DB00021020E94FF22DFCF86EB90E00E94EE0FFF
:102DC0008823F9F08091610290916202039751F09B
:102DD00081E090E0909362028093610210923B0246
:102DE0000E946E0C0E94D80197FF05C0109221022C
:102DF00010922002C0CF8091200290912102029770
:102E0000CECF89EA90E00E94EE0F8823A9F080914E
:102E1000610290916202039751F081E090E09093FB
:102E200062028093610210923B020E946E0C8091BC
:102E3000D1019091D201B3CF89E990E00E94EE0FC9
:102E40008823A9F08091610290916202039751F06A
:102E500081E090E0909362028093610210923B02C5
:102E60000E946E0C8091CF019091D00198CF89E89B
:102E700090E00E94EE0F8823A9F086E990E09093FD
:102E80003A02809339020E9404078091390290919E
:102E90003A020E94D00669E372E083E090E00E946B
:102EA000001173CB86E790E00E94EE0F882389F033
:102EB00081E080931F0280916102909162020397EA
:102EC00009F463CB8091390290913A020E94232742
:102ED0005CCB8FE690E00E94EE0F882329F08FEF05
:102EE0009FEF0E945F27B1CA88E690E00E94EE0F34
:102EF000882309F4AACA81E090E0F3CF8C3209F468
:102F00003BCB4FCBCF92DF92EF92FF920F931F9369
:102F1000CF93C9E282E492E00E94CC04892B09F4A9
:102F200056C0C15009F453C0A89582E492E00E94B3
:102F3000E20497FD4CC0E091A4018D3011F08A307D
:102F400059F4EE2339F31092C9011092CA0110927C
:102F5000CB011092CC01DECF8332E1F4EF3240F4AA
:102F600091E09E0F9093A401F0E0ED59FD4F808316
:102F7000E091A401F0E0ED59FD4F10821092A40100
:102F80000E945E108091630281110E94DE111092F6
:102F90006302D9CFE83120F01092A40110926302AD
:102FA000E091A401EF3240F491E09E0F9093A401D0
:102FB000F0E0ED59FD4F80830E9468036093C901E2
:102FC0007093CA018093CB019093CC01A3CFC091A1
:102FD000A401CC2361F10E946803C090C901D09084
:102FE000CA01E090CB01F090CC010091C501109195
:102FF000C6012091C7013091C8016C197D098E0965
:103000009F09061717072807390788F4EC2FF0E007
:10301000ED59FD4F10821092A4010E945E10809124
:103020006302882321F00E94DE1110926302CF9187
:103030001F910F91FF90EF90DF90CF9008952F9206
:103040003F924F925F926F927F928F929F92AF9238
:10305000BF92CF92DF92EF92FF920F931F93CF9385
:10306000DF93CDB7DEB728970FB6F894DEBF0FBE5B
:10307000CDBF0E9482170E94060B811188C130903B
:103080001F023110C6C08091B801813009F4BBC065
:103090008091B801823009F4B9C080919C018230DE
:1030A00009F4B1C0809129028111B0C080913E0223
:1030B00090913F02A0914002B0914102CC24C39470
:1030C000892B8A2B8B2B09F4C12C0E94B40AD82E91
:1030D000811107C0DD24D39480919302811101C036
:1030E000D12C0E9468034B015C014090D3015090A9
:1030F000D4016090D5017090D60149825A826B82CA
:103100007C8282E00E947E027C0185E00E947E0239
:103110008C01809104019091050122242394E816EA
:10312000F90641F480910201909103018017910703
:1031300009F4212C0E94E50A98878F8320910001D1
:103140003091010140E951E060E070E0DD2021F0C4
:103150004EE551E060E070E021102CC06F80788473
:103160006216730639F5D501C40149805A806B8017
:103170007C8084199509A609B70980399140A10579
:10318000B105C0F4311016C0C11014C08091D30134
:103190009091D401A091D501B091D60124013501BF
:1031A000481A590A6A0A7B0A4416550666067706C3
:1031B00008F4EDC08092D3019092D401A092D50181
:1031C000B092D601222041F0F0920501E092040174
:1031D00010930301009302016F80788470920101C3
:1031E000609200018091610290916202892BA1F0AE
:1031F0008091610290916202019771F0C090390252
:10320000D0903A0213C03324339450CF82E0382E4A
:103210004DCFC12C312C59CF809161029091620227
:10322000019761F7C0902002D090210261E072E026
:1032300082E492E00E94AD04C6010E9497106BEFF9
:1032400071E082E492E00E94AD04C7010E949710F1
:1032500065EF71E082E492E00E94AD04C8010E9433
:1032600097106FEE71E082E492E00E94AD040E943C
:10327000E50A0E94971069EE71E082E492E00E94F4
:10328000AD04632D70E090E080E04AE00E94F90F09
:1032900063EE71E082E492E00E94AD0420E030E051
:1032A00040E251E46091EB017091EC018091ED01FD
:1032B0009091EE010E949F3A0E94B239CB010E9488
:1032C00097106DED71E082E492E00E94AD0420E081
:1032D00030E048EC52E46091FE017091FF01809172
:1032E0000002909101020E949F3A0E94B239CB01E4
:1032F0000E94971067ED71E082E492E00E94AD04B5
:1033000080911002882309F43FC080912D0190E044
:103310000E94971062ED71E082E492E00E94AD0499
:1033200060911A0170E090E080E04AE00E94F90F9D
:103330000E94E50A029751F4809161029091620225
:10334000892B21F0809161029091620282E492E0E7
:103350000E94471028960FB6F894DEBF0FBECDBF6F
:10336000DF91CF911F910F91FF90EF90DF90CF9061
:10337000BF90AF909F908F907F906F905F904F9095
:103380003F902F900C94821790E080E0C1CF289658
:103390000FB6F894DEBF0FBECDBFDF91CF911F9166
:1033A0000F91FF90EF90DF90CF90BF90AF909F90E4
:1033B0008F907F906F905F904F903F902F900895E7
:1033C0004F925F926F927F928F929F92AF92BF9235
:1033D000CF92DF92EF92FF92CF93DF93EC010E94A6
:1033E00068034B015C0124EF820E21E0921EA11CB8
:1033F000B11C412C512C32010E94680368197909D3
:103400008A099B0997FF3FC00E9482170E946803A8
:103410006B017C01DC01CB0184199509A609B70970
:10342000883C9105A105B10520F00E941F182601D6
:1034300037010E94AE0EA8950E94E60885E00E9422
:103440007E02892BD9F488819981AA81BB8100975A
:10345000A105B10529F4C882D982EA82FB82CCCFCA
:10346000C81AD90AEA0AFB0A80EDC81687E0D8060E
:10347000E104F10408F4C0CF81E006C0188219828B
:103480001A821B82B9CF80E0DF91CF91FF90EF903D
:10349000DF90CF90BF90AF909F908F907F906F9074
:1034A0005F904F9008951092D3011092D401109222
:1034B000D5011092D6010C941F1810923E02109262
:1034C0003F02109240021092410210922802109284
:1034D000270210921B0260E08FE190E00E946511CC
:1034E00010922A0210929302109238021092220235
:1034F0001092230210922402109225020E948A093F
:103500000E94F9060E94040781E080933B020E941A
:103510000A0C0E94300C1092D3011092D401109228
:10352000D5011092D6010C941F18CF93DF9300D0D1
:10353000CDB7DEB77A836983BE016F5F7F4F0E948C
:1035400000111092D3011092D4011092D501109263
:10355000D6010E941F180F900F90DF91CF91089510
:103560004F925F926F927F928F929F92AF92BF9293
:10357000CF92DF92EF92FF926B017C010E94680371
:10358000C60ED71EE81EF91E812C912C54010E94F4
:1035900068036C197D098E099F0997FF25C00E9459
:1035A00082170E9468032B013C01DC01CB018819C2
:1035B0009909AA09BB09883C9105A105B10540F00C
:1035C0000E94060B811104C00E941F185301420182
:1035D0000E94AE0EA8950E94E608809129028823D9
:1035E000B1F20E94300CD3CFFF90EF90DF90CF90DC
:1035F000BF90AF909F908F907F906F905F904F9013
:10360000089560E088E00E94A70261E08AE00E94DD
:10361000A70260E570E080E090E00E94B01A60E0F0
:103620008AE00E94A7020C946E0C4F925F926F92F8
:103630007F928F929F92AF92BF92CF92DF92EF9242
:10364000FF921F93CF93DF93CDB7DEB72A970FB6C4
:10365000F894DEBF0FBECDBF853B910514F084EB1F
:1036600090E09A87898797FF02C01A861986809111
:103670002F0190913001853B910510F089859A8545
:10368000A985BA85A81BB90BB7FF03C0B195A19551
:10369000B1092CE130E00E94873BDC01CB018E5365
:1036A0009E4FAF4FBF4F893027E09207A105B1056C
:1036B00020F088E097E0A0E0B0E089839A83AB83B4
:1036C000BC8384389340A105B10540F484E893E0BD
:1036D000A0E0B0E089839A83AB83BC830E94680337
:1036E0006D837E838F83988781E0809338028091F9
:1036F0002E0181110E94540B89859A850E945C01DC
:10370000A985BA85B0933001A0932F0110E0812CD8
:10371000912C5401412C512C32010E9468032D81BF
:103720003E814F815885621B730B840B950B298159
:103730003A814B815C81621773078407950708F013
:1037400050C0A8950E94E6080E9468036B017C01A6
:10375000DC01CB012D813E814F815885821B930B6B
:10376000A40BB50B8A3F9105A105B105C8F08114E2
:103770009104A104B10451F0D701C6018819990937
:10378000AA09BB090597A105B10550F00E94B80927
:10379000863693401CF41F5F1330E8F5460157014D
:1037A000411451046104710451F0D701C601841918
:1037B0009509A609B709CC97A105B10558F08091E4
:1037C0002E0181110E94540B89859A850E945C010B
:1037D000260137016CE070E080E090E00E94B01AB2
:1037E0009CCF81E0133008F480E02A960FB6F8945D
:1037F000DEBF0FBECDBFDF91CF911F91FF90EF9045
:10380000DF90CF90BF90AF909F908F907F906F9000
:103810005F904F90089581E0E8CFCF92DF92EF92D2
:10382000FF92CF93DF937C01C62F862F90E0909379
:103830006202809361020E94F90610923E02109289
:103840003F02109240021092410210922802109200
:10385000270210921F0281E0C827C0933B020E94FA
:103860000407109234021092350210923602109220
:1038700037020E94540BE701C53BD10514F0C4EB9D
:10388000D0E0D7FF02C0D0E0C0E00E9468036B0127
:103890007C010E9468036C197D098E099F09603BB9
:1038A000744081059105A0F4A89580912E018111A5
:1038B0000E94540BCE010E945C01D0933001C09352
:1038C0002F0164E170E080E090E00E94B01AE1CF47
:1038D000CE010E94CE0BD0933001C0932F01809176
:1038E0006102909162029093090180930801D09344
:1038F0000701C0930601DF91CF91FF90EF90DF9019
:10390000CF900C946E0C8091390290913A0260E055
:103910000C940D1CFF920F931F93CF93DF93C1E084
:10392000C093290281E00E9452111092620210920B
:103930006102C0933B020E94F90610923E0210926F
:103940003F021092400210924102109228021092FF
:103950002702C0913902D0913A020E94BC098C0121
:1039600080915001882339F08E010451110917FF0D
:1039700002C010E000E0C53BD10514F0C4EBD0E07C
:10398000D7FF02C0D0E0C0E084E1F82ECE010E9453
:10399000151B60ED77E080E090E00E94B01AC8014E
:1039A0000E94151B811128C0109229020E943F110C
:1039B00010929C0110923D0210923C0281E0809393
:1039C0003B021092620210926102C8010E94CE0B6B
:1039D0001093300100932F010E946E0C1092D301BE
:1039E0001092D4011092D5011092D601DF91CF919F
:1039F0001F910F91FF900895FA94F110C7CF82E0C4
:103A000080939C010E94831CDF91CF911F910F91A5
:103A1000FF900C945D1A4F925F926F927F928F92FB
:103A20009F92AF92BF92CF92DF92EF92FF920F934D
:103A30001F93CF93DF93CDB7DEB762970FB6F8949D
:103A4000DEBF0FBECDBF9A8B898B80912F019091E5
:103A50003001853B910510F089899A89A989BA8935
:103A6000A81BB90BB7FF03C0B195A195B1092CE113
:103A700030E00E94873B6B017C0120E2C20E23E014
:103A8000D21EE11CF11C35E6C31639E1D306E10470
:103A9000F10430F084E6C82E89E1D82EE12CF12C17
:103AA0000E9468036D837E838F839887DC01CB013E
:103AB0008455924FAF4FBF4F9C01AD012C0D3D1D62
:103AC0004E1D5F1D2D873E874F87588B81E0809369
:103AD000380210E0412C512C320119821A821B82CB
:103AE0001C820E9468032D853E854F855889621B84
:103AF000730B840B950B97FF40C00E9468034B012A
:103B00005C010E948217A8950E94E60800919C0122
:103B1000D501C4012D813E814F815885821B930BB5
:103B2000A40BB50B89879A87AB87BC87002309F460
:103B30003FC08A3F9105A105B105D0F14114510460
:103B40006104710451F0D501C40184199509A609D5
:103B5000B7090597A105B10558F10E94B809863645
:103B6000934024F51F5F133008F10E948A1C409196
:103B70002F01509130015A8B498B89899A8962961D
:103B80000FB6F894DEBF0FBECDBFDF91CF911F916E
:103B90000F91FF90EF90DF90CF90BF90AF909F90EC
:103BA0008F907F906F905F904F9008952401350122
:103BB00089859A85AB85BC858C159D05AE05BF05AD
:103BC000A0F0002359F0133048F00E948A1CA09105
:103BD0002F01B0913001BA8BA98BCFCF29893A89B7
:103BE0003093300120932F01C8CF89819A81AB8116
:103BF000BC81892B8A2B8B2B79F0D501C4012981BB
:103C00003A814B815C81821B930BA40BB50B8035F1
:103C10009105A105B10598F080912E0181110E94B6
:103C2000540B89899A890E945C0149895A89509369
:103C3000300140932F0189829A82AB82BC8260E17D
:103C400070E080E090E00E94B01A4BCFCF93DF93FA
:103C5000853B910514F084EB90E0EC0197FF02C0E6
:103C6000D0E0C0E010926202109261020E94F90658
:103C700010923E0210923F021092400210924102B6
:103C800010923D0210923C0281E080933B020E9420
:103C9000040710929302109234021092350210928F
:103CA0003602109237020E94540B0E948807853B0F
:103CB000910508F0CE019093300180932F0181E0AF
:103CC00080933802CE010E945C01CE010E940B1D40
:103CD000EC01109238020E942307811107C0CE0127
:103CE0000E94CE0BD0933001C0932F01DF91CF9172
:103CF00008958091A101811104C00E94BC090C9417
:103D0000261E8091390290913A0221E020935001C1
:103D1000449797FF02C090E080E00E94261E109218
:103D2000500180919C01823041F70895CF93C82FB4
:103D300060E08FE190E00E94651110921B021092EA
:103D400062021092610210921602109215021092F5
:103D50001702109218021092190210921A020E9471
:103D60000407109238020E949A08CC2399F182E04D
:103D70000E947E02892B71F50E94860860E089E02E
:103D80000E94A7020E94E6080E946E0CCC2321F13B
:103D900081E080933B021092E2011092E3011092C5
:103DA000E4011092E5011092DE011092DF01109201
:103DB000E0011092E1011092DA011092DB01109201
:103DC000DC011092DD0181E08093D9011092D701CE
:103DD000CF91089561E0D3CF8091390290913A025A
:103DE0009093300180932F019091980281E0943656
:103DF00008F480E080939C010E94791E80919C01D0
:103E0000823049F210929C01C6CF4F925F926F921E
:103E10007F928F929F92AF92BF92CF92DF92EF925A
:103E2000FF920F931F93CF93DF93CDB7DEB7289701
:103E30000FB6F894DEBF0FBECDBF90911C02992340
:103E4000C9F010E0812F28960FB6F894DEBF0FBEA0
:103E5000CDBFDF91CF911F910F91FF90EF90DF9039
:103E6000CF90BF90AF909F908F907F906F905F901A
:103E70004F900895082F0E94C608182F8111E1CF96
:103E8000809129028111DDCF0E94530A8823C9F253
:103E90008091610290916202892B31F080916102E0
:103EA00090916202019769F6C0904C01D0904D014B
:103EB000E0904E01F0904F01C114D104E104F104EF
:103EC00009F4BFCF0E946803809051019090520185
:103ED000A0905301B09054012B013C01481859089F
:103EE0006A087B0853014201B7FCABCF4B015C0170
:103EF0008C189D08AE08BF0821E1821627E29206C1
:103F0000A104B10480F110924C0110924D01109265
:103F10004E0110924F011092B9011092BA01109205
:103F2000BB011092BC010E947D0980913E029091DC
:103F30003F02A0914002B0914102892B8A2B8B2B2A
:103F400009F07FCF8091280281117BCF80912702D9
:103F5000811177CF80912902811173CF10923D0298
:103F600010923C026FCF20916102309162022130A9
:103F7000310509F4E3C02091610230916202232BE4
:103F800009F0EBC0ECED4E2E512C612C712C4D82C2
:103F90005E826F827886F0EACF2ED12CE12CF12C54
:103FA0008C149D04AE04BF0408F44BCF011116C05D
:103FB000209148013091490140914A0150914B01B3
:103FC0002B013C01421A530A640A750AA3019201AB
:103FD000253031054105510508F433CF6093480180
:103FE0007093490180934A0190934B010E94B80954
:103FF0003C010E94050A182F882309F422CF8D81E5
:104000009E81AF81B885C80ED91EEA1EFB1E8C1496
:104010009D04AE04BF0408F414CF80916102909116
:10402000620220910C0130910D01892B21F0209129
:104030000E0130910F018091610290916202892BF3
:1040400009F09AC080910A0190E06216730654F458
:104050002091BD013091BE012F5F3F4F3093BE01D3
:104060002093BD012091BD013091BE012817390771
:104070000CF4E7CE10924C0110924D0110924E01BB
:1040800010924F011092B9011092BA011092BB0127
:104090001092BC011092BE011092BD0180912902C4
:1040A0008111D0CE1092BE011092BD0180912802E4
:1040B0008111C8CE809127028111C4CE80913E0229
:1040C00090913F02A0914002B0914102892B8A2B2E
:1040D0008B2B09F0B7CE809161029091620201971B
:1040E00039F498EC89169104A104B10408F4C1C014
:1040F00080913C0290913D02181619060CF043C0C5
:1041000082E090E090933D0280933C0281E08093B6
:10411000290210929C0182E00E945211809161025A
:1041200090916202892B59F5809120029091210291
:1041300061E00E940D1C0E945D1A84CE40E5442E71
:10414000512C612C712C4D825E826F82788658E2F0
:10415000C52ED12CE12CF12C23CF2AEF422E512C4D
:10416000612C712C4D825E826F82788638ECC32E72
:10417000D12CE12CF12C14CF80910B0165CF0E9442
:10418000BC0960E0D6CF80913C0290913D0201963F
:1041900090933D0280933C020E9468036C507E4FD6
:1041A0008F4F9F4F60933E0270933F028093400277
:1041B0009093410280913E0290913F02A091400273
:1041C000B09141028093510190935201A093530109
:1041D000B09354010E94F9060E948A0980916102FD
:1041E00090916202019731F581E08093280210924C
:1041F00027028091610290916202039711F00E9460
:10420000AB0C0E946803605E7C4F8F4F9F4F6093A2
:104210003E0270933F0280934002909341020E94BD
:104220006E0C1092D3011092D4011092D50110920D
:10423000D60108CE8091610290916202892B41F4EF
:1042400081E080932702109228020E94D90DD9CFD5
:1042500082E090E090933D0280933C0281E0809365
:10426000290210929C0182E00E9452110E94831C3C
:1042700062CF0E94F9060E948A0982E090E0909342
:104280003D0280933C0281E08093290210929C01C0
:10429000EBCFCF92DF92EF92FF920F931F93CF93CA
:1042A000DF932091610230916202232B41F0209133
:1042B0006102309162022130310509F005C1EC0143
:1042C0008091380281117BC0CE010E94B206882302
:1042D00089F080912E01882369F0809122029091CB
:1042E0002302A0912402B0912502892B8A2B8B2BCB
:1042F00009F46BC1009108011091090180916102DC
:10430000909162020817190709F059C080910601BF
:1043100090910701C817D90709F051C0C090220237
:10432000D0902302E0902402F0902502C114D10421
:10433000E104F10409F0D7C0109222021092230286
:10434000109224021092250280912E018111F5C055
:10435000C0903402D0903502E0903602F0903702DF
:10436000C114D104E104F10409F013C1D093300168
:10437000C0932F01CE010E94CE0B809161029091DB
:104380006202892B09F40EC18091C1019091C20192
:10439000019709F099C080912902811195C08091FF
:1043A0003C0290913D02892B09F08EC01092D301FE
:1043B0001092D4011092D5011092D60185C01092AE
:1043C00038020E94540B0E9462078C01853B9105C4
:1043D00098F000912F0110913001053B110560F01C
:1043E00080912002909121028E01C817D90721F4F3
:1043F0000091390210913A02053B110520F4109307
:10440000300100932F0180919802843608F065C036
:10441000C8018C1B9D0B97FF03C091958195910955
:1044200003970CF45AC081E0809393020E946803C2
:1044300060939402709395028093960290939702F2
:10444000809161029091620290930901809308012A
:10445000D0930701C09306010E9468036B017C01A1
:10446000DE01A01BB10BB7FF03C0B195A195B10947
:104470002CE130E00E94873BDC01CB0180579E4F4E
:10448000AF4FBF4F853C29E09207A105B10520F051
:1044900084EC99E0A0E0B0E0803921E09207A1052A
:1044A000B10520F480E991E0A0E0B0E0C80ED91E8B
:1044B000EA1EFB1EC0922202D0922302E092240246
:1044C000F092250210923B02DF91CF911F910F9144
:1044D000FF90EF90DF90CF90089510929302CE015D
:1044E0000E949503ADCF0E9468036C197D098E0967
:1044F0009F0997FF21CF8091610290916202081776
:10450000190709F019CF0E94050A882339F00E9483
:104510001D0A882319F081E00E94051F80912E0159
:1045200081110ACF0E94880797FDCECF8C1B9D0B6F
:104530000396079708F400CFC7CF80912F01909181
:10454000300197FD1CC08C1B9D0B03960797B8F498
:104550008091610290916202909309018093080119
:10456000D0930701C093060180916102909162028D
:10457000892B09F0A9CF81E080933B02A5CF8FEF73
:104580009FEF909307018093060181E080933802AA
:104590009BCF0E9468036C197D098E099F0997FFC4
:1045A000E5CEE2CF81E080933B0280913C02909186
:1045B0003D02892B09F0E8CE10923E0210923F0294
:1045C0001092400210924102DFCE809161029091E0
:1045D0006202892B09F078CF81E080933B028091C1
:1045E0003C0290913D02892B09F06ECF10923E0261
:1045F00010923F02109240021092410265CFCF927A
:10460000DF92EF92FF92CF93DF932091610230917E
:10461000620223303105D1F1EC01853B910514F0A4
:10462000C4EBD0E0D7FF02C0D0E0C0E080913C02F4
:1046300090913D02181619066CF4809161029091D8
:104640006202019739F480912002909121028C1727
:104650009D0719F180913802882309F497C01092C0
:10466000930281E0809338028FEF9FEF90930901CE
:1046700080930801D0930701C09306011092220293
:10468000109223021092240210922502DF91CF9102
:10469000FF90EF90DF90CF90089581E080933802F3
:1046A0000E94540BCE010E945C01D0933001C09354
:1046B0002F01809161029091620290930901809391
:1046C0000801D0930701C093060110923B020E949B
:1046D00068036B017C010E9462079E01281B390B55
:1046E000C901181619067CF50E946207DE01A81B95
:1046F000B90B30E9C30E31E0D31EE11CF11C2CE1F3
:1047000030E00E94873BC60ED71EE81EF91E0E94AD
:1047100068036C157D058E059F05D8F480916102B4
:1047200090916202019709F0B1CF64E170E080E0FE
:1047300090E00E94B01A0E94821781E00E94051F3B
:10474000882329F3A3CF0E946207DC01AC1BBD0BB9
:10475000D0CF8091610290916202019709F096CFCB
:104760000E942307811192CFCE010E94CE0B80912F
:104770006102909162029093090180930801D093A5
:104780000701C093060110923B0280CFCE010E9428
:10479000B206882309F463CF80916102909162028E
:1047A0009093090180930801D0930701C0930601FB
:1047B0008091610290916202892BB1F481E0809333
:1047C0003B0280912E01811161CF80916102909115
:1047D0006202039709F45ACFDF91CF91FF90EF90D7
:1047E000DF90CF900C94060510923B02EACFEF9237
:1047F000FF921F93CF93DF93182FC1E0D0E0E82EF4
:10480000F12C61E080E00E94250C6CE271E080E018
:1048100090E00E94B01A60E080E00E94250CCE1566
:10482000DF0534F46CE271E080E090E00E94B01AA1
:1048300021968C2F8150811720F3DF91CF911F910A
:10484000FF90EF9008954F925F926F927F928F92B8
:104850009F92AF92BF92CF92DF92EF92FF921F93FF
:10486000CF93DF9310923E0210923F0210924002CB
:104870001092410210923D0210923C0210921F02CF
:1048800010922A0210921C0281E080931E020E9464
:104890009A0861E089E00E94A702C0913902D09194
:1048A0003A02C53BD10514F0C4EBD0E0D7FF02C0FB
:1048B000D0E0C0E00E9488077C01853B910590F024
:1048C000E0902F01F090300185EBE816F10450F0F4
:1048D0008091610290916202019709F486C00E9462
:1048E000BC097C010E94F90610923E0210923F0220
:1048F00010924002109241021092620210926102E4
:1049000010923B0211E0109338020E9404070E94AB
:104910006E0CF0923001E0922F01EC1AFD0A22E0B9
:10492000E20EF11C85E0E816F10408F063C00E9475
:10493000540BCE010E945C01CE010E94CE0BD0939D
:104940003001C0932F011092090110920801D093F9
:104950000701C093060110933B021092380261E0F8
:1049600080E00E94250C82E00E94F72383E090E023
:104970009093620280936102C1E0C0931B02109287
:104980001602109215020E9468036093170270933A
:1049900018028093190290931A0210921E020E942C
:1049A0000407C0933B0210929302109238020E94B7
:1049B0000A0C0E94060C61E08FE190E00E946511F4
:1049C00060E080E00E94250CDF91CF911F91FF9065
:1049D000EF90DF90CF90BF90AF909F908F907F909F
:1049E0006F905F904F900C94E608E0902002F0905A
:1049F000210278CF0E9468036B017C0120EEC20E79
:104A00002EE2D21EE11CF11C10E0812C912C5401ED
:104A10000E9468036C197D098E099F0997FF19C0D0
:104A20000E942307811115C00E9468032B013C01DD
:104A30000E948217A8950E94E6080E94880797FDA9
:104A400013C08C1B9D0B0396079770F41F5F1530E6
:104A500060F00E942307811103C0CE010E94CE0B9B
:104A600081E080933B0279CF10E081149104A1048E
:104A7000B10459F0D301C20188199909AA09BB09E7
:104A800080359105A105B10590F080912E0181112D
:104A90000E94540BCE010E945C01109209011092F9
:104AA0000801D0930701C09306015301420160E160
:104AB00070E080E090E00E94B01AAACF8091D90106
:104AC000811138C08091610290916202039791F147
:104AD0000E94230781112EC0809161029091620291
:104AE000039741F182E00E947E020197E1F481E0A8
:104AF0008093D9018093D7011092DA011092DB01E3
:104B00001092DC011092DD0160E088E00E94A702B3
:104B100061E080E00E94250C809161029091620228
:104B2000039731F408950E944A088111E0CF089557
:104B30000C942324089561E080E00E94250C85E018
:104B40000E94F72380E00C94961E1F920F920FB6DE
:104B50000F9211242F933F938F939F93AF93BF9303
:104B600080912C0290912D02A0912E02B0912F02E3
:104B700030912B0223E0230F2D3758F50196A11D0C
:104B8000B11D20932B0280932C0290932D02A093B1
:104B90002E02B0932F028091300290913102A091A9
:104BA0003202B09133020196A11DB11D80933002F3
:104BB00090933102A0933202B0933302BF91AF9130
:104BC0009F918F913F912F910F900FBE0F901F904B
:104BD000189526E8230F0296A11DB11DD2CF1F9272
:104BE0000F920FB60F9211242F933F934F935F9321
:104BF0006F937F938F939F93AF93BF93CF93DF93E5
:104C0000EF93FF9380919601C0919501D0E087FFCB
:104C100024C01092850010928400809196018F5FCD
:104C20008093960180919601082E000C990B8C17A9
:104C30009D0724F4809196018C30C4F1809184000A
:104C400090918500049680349C4908F47AC0809144
:104C5000840090918500049676C080919601082E7C
:104C6000000C990B8C179D07C4F6E09196018E2FCE
:104C7000EE0F990BFC01EE0FFF1FE80FF91FE7562F
:104C8000FD4F808186FFC9CFE09196018E2FEE0FF8
:104C9000990BFC01EE0FFF1FE80FF91FE756FD4FC0
:104CA000808160E08F730E94A702B7CF20918400BB
:104CB00030918500E09196018E2FEE0F990BFC014B
:104CC000EE0FFF1FE80FF91FE756FD4F818192811C
:104CD000820F931F9093890080938800E091960142
:104CE0008E2FEE0F990BFC01EE0FFF1FE80FF91F3F
:104CF000E756FD4F808186FF11C0E09196018E2F0F
:104D0000EE0F990BFC01EE0FFF1FE80FF91FE7569E
:104D1000FD4F808161E08F730E94A702FF91EF91A8
:104D2000DF91CF91BF91AF919F918F917F916F91C3
:104D30005F914F913F912F910F900FBE0F901F9059
:104D4000189580E49CE990938900809388008FEF08
:104D500080939601E3CF1F920F920FB60F9211240A
:104D60002F933F934F935F936F937F938F939F9373
:104D7000AF93BF93EF93FF93E0919901F0919A0164
:104D8000309749F0A685B7858585968D91FF14C02B
:104D90009C918923A1F4FF91EF91BF91AF919F91D5
:104DA0008F917F916F915F914F913F912F910F90D4
:104DB0000FBE0F901F9018959C91892361F7A389CE
:104DC000B4899C918589809589238C93868997895C
:104DD0000197F1F7608D718DA685B785558538E00F
:104DE00020E0CB010197F1F7822F90E09595879510
:104DF000282F4C91452309F02068315091F7868D7A
:104E000081FD20958091980190E001968F739927FC
:104E100030919701381799F0A0919801B0E0AB5A02
:104E2000BE4F2C9380939801828D938D0197F1F75B
:104E3000A389B4898C919589892B8C93ACCF868D6D
:104E40008160868FF1CFCF93DF9320916102309103
:104E500062022330310581F1C92FD82F10926202EE
:104E6000109261020E946E0C81E0809338021092D1
:104E70003B020E9404070E948807853B910548F089
:104E800080912F0190913001853B910510F00E9497
:104E9000D1099093300180932F018D2F9C2F853B5A
:104EA000910514F084EB90E097FF02C090E080E061
:104EB000DF91CF910C94D006DF91CF91089520918E
:104EC000390230913A02820F931F853B910508F514
:104ED0002091390230913A0228173907D1F0909386
:104EE0003A028093390269E372E083E090E00E9425
:104EF00000118091390290913A020E94232710926A
:104F0000D3011092D4011092D5011092D6010C94C5
:104F10001F180895CF93DF93CDB7DEB7A2970FB6D2
:104F2000F894DEBF0FBECDBF789484B5826084BD97
:104F300084B5816084BD85B5826085BD85B581609D
:104F400085BD80916E00816080936E00109281001B
:104F500080918100826080938100809181008160D6
:104F60008093810080918000816080938000809197
:104F7000B10084608093B1008091B0008160809323
:104F8000B00080917A00846080937A0080917A00EA
:104F9000826080937A0080917A00816080937A00A9
:104FA00080917A00806880937A001092C10014BECC
:104FB0000FB6F894A8958091600088618093600096
:104FC000109260000FBE10925D0210925C0210926F
:104FD0005B0210925A0210925902109258028FE10D
:104FE00090E090935F0280935E0290914E02963122
:104FF00008F047C021E030E0309359022093580276
:105000002DE130E030935B0220935A022DE030E036
:1050100030935D0220935C022091680084E0983018
:1050200048F031E09E3008F430E081E001C0880FA4
:105030003A95EAF7822B809368002DE630E09830AD
:1050400050F02BE630E09E3030F02CE630E0963128
:1050500010F030E020E03093560220935502292FC3
:1050600030E0983008F06EC281E001C0880F9A9558
:10507000EAF78093570280915E0290915F02019758
:10508000F1F780915C0290915D02892B49F1E091EA
:105090009901F0919A0102E0E234F00709F13097AA
:1050A00039F0A389B4899C918589809589238C9353
:1050B000809160028E7F809360021092980110921E
:1050C000970182E492E090939A0180939901E09194
:1050D0005502F0915602808190915702892B80836E
:1050E000109262021092610210922102109220022C
:1050F00080E590E09093D2018093D1018EE690E01C
:105100009093D0018093CF0110923A02109239020D
:105110001092CE011092CD011092C9011092CA01D5
:105120001092CB011092CC0184E690E0A0E0B0E0B8
:105130008093C5019093C601A093C701B093C801A5
:105140001092C4011092C3011092C2011092C101C9
:105150001092C0011092BF011092BE011092BD01C9
:105160001092B9011092BA011092BB011092BC01C9
:1051700010923E0210923F021092400210924102A1
:1051800010923D0210923C02109229021092B80136
:105190001092D3011092D4011092D5011092D60131
:1051A0001092B4011092B5011092B6011092B7019D
:1051B00010921B021092B0011092B1011092B20134
:1051C0001092B3011092E7011092E8011092E901E8
:1051D0001092EA011092E60110922A021092AF0199
:1051E0001092AB011092AC011092AD011092AE0181
:1051F0001092A7011092A8011092A9011092AA0181
:105200001092A60111E0109311011092A5011092C5
:105210001D0210921C0280939802109216021092A6
:105220001502109217021092180210921902109291
:105230001A021092A40161E088E00E94D50261E0A8
:105240008AE00E94D50260E08AE00E94A70261E045
:105250008CE00E94D50260E08CE00E94A70262E030
:1052600085E00E94D50261E089E00E94D50261E0FC
:105270008BE00E94D5020E94060C60E082E00E9452
:10528000D50282E00E947E02019709F068C1109366
:10529000AF0181E08093110181E08093A50160E07E
:1052A0008EE00E94D50269E372E083E090E00E9404
:1052B000C7106FEB71E089E090E00E94C710809109
:1052C000BF019091C001892B99F08091BF0190910D
:1052D000C001019769F01092C0011092BF011A82BB
:1052E0001982BE016F5F7F4F89E090E00E9400113C
:1052F0008091390290913A0297FD07C0809139025E
:1053000090913A02853B910564F086E990E0909394
:105310003A028093390269E372E083E090E00E94F0
:10532000001111E010932E0110926202109261029E
:1053300060E272E081E090E00E94C7106DEC71E0E5
:1053400085E090E00E94C71061EC71E087E090E09A
:105350000E94C71063EA71E08DE190E00E94DB10CB
:105360008091A301823040F01093A30163EA71E0C1
:105370008DE190E00E94271162EA71E08FE090E0F9
:105380000E94DB108091A201823010F01092A201E5
:1053900061EA71E084E490E00E94DB108091A10159
:1053A000823010F01092A10168E972E089E190E08A
:1053B0000E94DB10809198028A3020F08091980240
:1053C000853648F084E68093980268E972E089E1C6
:1053D00090E00E9427111982BE016F5F7F4F87E125
:1053E00090E00E94DB1089819FEF980F923008F0C7
:1053F00080E08093B8010E943F1110922902109220
:105400003D0210923C0210923E0210923F02109216
:105410004002109241020E948A0968ED71E08CE11D
:1054200090E00E94DB108091D801882369F0809180
:10543000D801813049F081E08093D80168ED71E0B6
:105440008CE190E00E94271180912002909121022E
:1054500097FD07C08091200290912102853B910524
:1054600064F080E590E0909321028093200260E256
:1054700072E081E090E00E9400111982BE016F5F2E
:105480007F4F8FE190E00E94DB108981823030F005
:10549000198260E08FE190E00E946511D9800E943E
:1054A000680360517A4A8F4F9F4F60939D017093BC
:1054B0009E0180939F019093A0010FB6F894A89548
:1054C00080916000886180936000109260000FBE40
:1054D00088E199E20FB6F894A895809360000FBE1A
:1054E0009093600060E273E080E090E00E94B01A68
:1054F000DD20B9F183E090E0909362028093610235
:1055000011E010931B0210921602109215020E94D5
:1055100068036093170270931802809319029093A6
:105520001A0210933B0210923802109293020E94CA
:1055300004070E940A0C0E94060C10932E01109280
:105540009C01AFC09E3040F42850310981E001C079
:10555000880F2A95EAF78DCD2E503109F7CF80E0DC
:1055600099CE8091C002982F9D7F953A09F074C121
:105570001092C002873A11F40C946E3781E02091AA
:10558000980291E0243608F490E090939C018111F8
:105590000C9470378091BF019091C001892B11F458
:1055A0000C94703719821A821B821C8215E00E94AB
:1055B0009A06CE0101960E94E019882309F44EC193
:1055C0000E9492060E949A060E94F90610923E02DC
:1055D00010923F02109240021092410210921F025C
:1055E0000E9488078C01853B910558F000912F019E
:1055F00010913001053B110520F000913902109106
:105600003A02EE24E394F12CF0926202E0926102FD
:10561000CC24C394C092AF010E94040710923B02B5
:105620001093300100932F01C09238028091200224
:10563000909121020E94D006809120029091210237
:105640000E940B1D109238020E942307811120C076
:10565000F0920901E09208018091200290912102CC
:10566000909307018093060180919302811110C0ED
:105670000E94880780912002909121020E94CE0B07
:1056800080912002909121029093300180932F010C
:105690000E949A060E946E0C80919C01823009F053
:1056A0004ECF0E946E0C0E949A0810922A020E940D
:1056B00068036059784E8F4F9F4F60939D017093A0
:1056C0009E0180939F019093A0011092E20110929D
:1056D000E3011092E4011092E5011092DE011092B4
:1056E000DF011092E0011092E1011092DA011092B4
:1056F000DB011092DC011092DD011092D9011092B1
:10570000D70188E290E00E94E510082F8FE4800F17
:10571000843008F0AFC068E171E089E290E00E9457
:10572000C71066E171E08BE290E00E94C7108FE243
:1057300090E00E94E51080939B01833008F0C8C17F
:105740008091180190911901C29734F482E390E09E
:10575000909319018093180180911801909119017B
:10576000833C914034F082EC91E090931901809356
:105770001801809116019091170197FF04C01092B3
:105780001701109216018091160190911701893C22
:10579000910534F088EC90E0909317018093160106
:1057A0008CE390E00E94E51080931A018B3018F092
:1057B00081E080931A018DE390E00E94E510182F9C
:1057C000833008F011E010931001043B09F083C10D
:1057D0001E821D821A821982BE016B5F7F4F8EE38B
:1057E00090E00E94C710BE016F5F7F4F80E490E0A1
:1057F0000E94C71082E490E00E94E510082F83E425
:1058000090E00E94E5104D815E819A01285532405A
:10581000283A314008F05FC129813A81B9016855C1
:105820007240683A714008F056C19FEF900F98306F
:1058300008F051C19FEF980F983008F04CC1509379
:105840000F0140930E0130930D0120930C01009342
:105850000B0180930A0121C080E091CE0E94920644
:10586000CE0101960E94E0198111ACCE115009F0D1
:105870009ECEA8CE88E790E09093190180931801FE
:1058800083E290E0909317018093160110929B01A0
:1058900081E080931A010E94560910921002109222
:1058A0000A020E9468036059784E8F4F9F4F6093A1
:1058B000110270931202809313029093140280E3FA
:1058C00090E00E94E510813C09F07EC018861F829E
:1058D0001E821D821A821982BE01695F7F4F82E398
:1058E00090E00E94C710BE016B5F7F4F84E390E0A1
:1058F0000E94C710BE016F5F7F4F86E390E00E9459
:10590000C7106F81788509811A81ED80FE8061154D
:10591000710539F4E114F10421F40115110509F4BC
:1059200053C0072E000C880B990B0E94EA3920E027
:1059300030E04AE754E40E944039609306027093D5
:1059400007028093080290930902B701FF0C880BAD
:10595000990B0E94EA3920E030E04AE754E40E94C3
:105960004039609302027093030280930402909383
:105970000502B801110F880B990B0E94EA3920E04B
:1059800030E04AE754E40E94403960932901709363
:105990002A0180932B0190932C0181E080930A02CD
:1059A00080E090E0A0E8BFE380932501909326017A
:1059B000A0932701B09328018093210190932201A5
:1059C000A0932301B093240160E570E080E090E0B3
:1059D0000E943603A89513E05BE0E52EF12C68E405
:1059E000C62E74E0B72E80911002811132C0A895A6
:1059F0001092BC0061E083E10E94D50209E061E001
:105A000083E10E94A702C7010197F1F760E083E1FB
:105A10000E94A702C7010197F1F7015081F762E0E8
:105A200082E10E94D50262E083E10E94D5021092D9
:105A3000B900C092B800B092BC000E94400681112B
:105A400008C062E370E080E090E00E9436031150ED
:105A500051F60E94680360930C0270930D028093CC
:105A60000E0290930F0260E0D11001C061E089E066
:105A70000E94A7020E94E60833243394A8950E944E
:105A800082170E9468036B017C0185E00E947E0200
:105A90008C010E942307882321F11092E2011092C9
:105AA000E3011092E4011092E5011092DE011092E0
:105AB000DF011092E0011092E1011092DA011092E0
:105AC000DB011092DC011092DD011092D9012FC090
:105AD00010929B0135CE812F0E9456090E947A11A7
