:100000000C9435010C945D010C945D010C94CC268C
:100010000C94CC260C94CC260C945D010C945D01C0
:100020000C945D010C945D010C945D010C94102600
:100030000C945D010C945D010C945D010C945D01C8
:100040000C94C6250C945D010C945D010C945D012B
:100050000C945D010C945D010C945D010C945D01A8
:100060000C945D010C945D01E8B083E5B08F00E86D
:10007000B083E5A4A700E8B083E695B4E68A98E5E6
:100080008FA0E8A792E5BAA600E5889DE5A78BE5D5
:100090008C96E8A792E5BAA600E887AAE5AE9AE4AE
:1000A000B989E58A9FE883BD00E5AE8CE585A8E6C1
:1000B0008993E5BC8000E5BE80E4B88B00E5BE8096
:1000C000E4B88AE694B600E98080E587BAE99A90B8
:1000D000E894BD00E5BC80E590AFE99A90E894BD56
:1000E00000E585B3E997ADE5A0B5E8BDACE6A38032
:1000F000E6B58B00E5BC80E590AFE5A0B5E8BDAC0A
:10010000E6A380E6B58B00E5BC80E69CBAE4B88B3C
:10011000E7BFBB00E5BC80E69CBAE4B88AE7BFBB9A
:1001200000E585B3E997ADE887AAE6A38000E5BCC2
:1001300080E590AFE887AAE6A38000E585B3E9975C
:10014000ADE694B6E59B9E00E68993E5BC80E69417
:10015000B6E59B9E00E8B083E9809F00E7A681E6B4
:10016000ADA2E68C89E992AEE98080E587BA00E528
:100170008581E8AEB8E68C89E992AEE98080E587B2
:10018000BA004F4B3A43550045523A4D5055004541
:10019000523A4D50550045523A4D5055004F4B3A4A
:1001A000434C0045523A4D505500E887AAE58AA8CD
:1001B000E8B083E5B9B300E69585E99A9CE5B7B266
:1001C000E8AFBB00E585B3E997AD00E68993E5BCF0
:1001D00080007C42533A007C494D533A007C4945AB
:1001E000563A007C4952443A007C4D4F4B3A007CD1
:1001F0004552523A007C49544D3A007C42544E3AA2
:10020000007C4143433A00414E473A000000000061
:10021000240027002A0000000000250028002B00F1
:100220000000000023002600290004040404040444
:100230000404020202020202030303030303010295
:100240000408102040800102040810200102040864
:100250001020000000080002010000030407000055
:100260000000000000007C37033811241FBECFEFD0
:10027000D8E0DEBFCDBF11E0A0E0B1E0E4EAF7E7EF
:1002800002C005900D92A834B107D9F722E0A8E486
:10029000B1E001C01D92AF3BB207E1F711E0C4E34A
:1002A000D1E004C02197FE010E94963BC333D107E1
:1002B000C9F70E94AB270C94C53B0C940000CF9269
:1002C000DF92EF92FF92DC01A03282E0B807D4F512
:1002D000A53BB10514F0A4EBB0E04091BD0228E8C5
:1002E00030E0241B310947FD3395220F331F220FC5
:1002F000331F6901330FEE08FF084091BE0228E565
:1003000032E0241B310947FD3395220F331F220FA2
:10031000331F032E000C440B550B2C193D094E09BD
:100320005F09B7FF02C0B0E0A0E00E949D3824EB57
:1003300030E040E050E00E947338C20ED31EE41E4D
:10034000F51ED601E091BC02EC3080F52091BD0293
:1003500088E890E0821B910927FD9395880F991FEB
:10036000880F991FA817B90784F02091BE0288E56D
:1003700092E0821B910927FD9395880F991F880FA2
:10038000991FA817B9070CF4CD010297880F991F80
:100390004FB7F8942E2F30E0F901EE0FFF1FE20F58
:1003A000F31FE856FD4F928381834FBFFF90EF907C
:1003B000DF90CF9008958F929F92AF92BF92CF928D
:1003C000DF92EF92FF928091BE0258E5C52E52E077
:1003D000D52EC81AD10887FDD394CC0CDD1CCC0CCB
:1003E000DD1C0D2C000CEE08FF088091BD0278E8A2
:1003F000872E912C881A910887FD9394880C991C5C
:10040000880C991C092C000CAA08BB088091BC021E
:100410008F3FD1F190E0FC01EE0FFF1FE80FF91FB5
:10042000E856FD4F8181928133E0880F991F3A95FC
:10043000E1F7B0E0A0E044E0B595A79597958795E2
:100440004A95D1F702969C012F5F3F4F032E000C77
:10045000440B550B281939094A095B09A4EBB0E094
:100460000E949238A7019601281939094A095B09A7
:100470000E947338C901FF90EF90DF90CF90BF903A
:10048000AF909F908F90089590E080E0DCCF80E463
:1004900080937C0080917A00806480937A008091C0
:1004A0007A0086FDFCCF80917800909179000895C4
:1004B000833081F028F4813099F08230A9F00895DA
:1004C0008730A9F08830C9F08430B1F48091800081
:1004D0008F7D03C0809180008F7780938000089586
:1004E00084B58F7784BD089584B58F7DFBCF8091CF
:1004F000B0008F778093B00008958091B0008F7D19
:10050000F9CFCF93DF93282F30E0F901EE5AFD4F5A
:100510008491F901E25CFD4FD491F901E65DFD4F54
:10052000C491CC23A1F081110E945802EC2FF0E07D
:10053000EE0FFF1FE05EFD4FA591B491EC91ED230E
:1005400081E090E009F480E0DF91CF91089580E0B0
:1005500090E0FACF1F93CF93DF93282F30E0F9017B
:10056000EE5AFD4F8491F901E25CFD4FD491F901FF
:10057000E65DFD4FC491CC23A9F0162F81110E9496
:100580005802EC2FF0E0EE0FFF1FEA5EFD4FA59141
:10059000B4918FB7F894EC91111108C0D095DE2377
:1005A000DC938FBFDF91CF911F910895DE2BF8CFA1
:1005B000CF93DF9390E0FC01E25CFD4F2491865DD8
:1005C0009D4FFC0184918823C9F090E0880F991F0A
:1005D000FC01E45FFD4FA591B491FC01EA5EFD4F83
:1005E000C591D49161110DC09FB7F8948C9120955D
:1005F00082238C938881282328839FBFDF91CF910A
:100600000895623051F49FB7F8943C91822F809501
:1006100083238C93E8812E2BEFCF8FB7F894EC9146
:100620002E2B2C938FBFEACF3FB7F89480913D02D9
:1006300090913E02A0913F02B091400226B5A89B46
:1006400005C02F3F19F00196A11DB11D3FBFBA2F64
:10065000A92F982F8827BC01CD01620F711D811D24
:10066000911D42E0660F771F881F991F4A95D1F7A9
:1006700008958F929F92AF92BF92CF92DF92EF92A6
:10068000FF924B015C010E9414036B017C010E94EC
:1006900014036C197D098E099F09683E734081051A
:1006A0009105A8F321E0821A9108A108B10888EE0B
:1006B000C80E83E0D81EE11CF11C81149104A10432
:1006C000B10429F7FF90EF90DF90CF90BF90AF90EB
:1006D0009F908F9008952FB7F89460913902709190
:1006E0003A0280913B0290913C022FBF0895CF9235
:1006F000DF92EF92FF920E946B036B017C0180916D
:10070000BC0087FD13C00E946B036C197D098E0924
:100710009F09633071058105910588F31092BC0033
:1007200080E0FF90EF90DF90CF90089581E0F9CFC7
:10073000CF92DF92EF92FF920F931F93CF93DF93AD
:10074000C0912F01D0913001D7FD26C02091970292
:10075000243610F59E01281B390B2E5F3F4F2530A4
:100760003105D0F08C010E946B03C0909302D090B1
:100770009402E0909502F09096026C197D098E0922
:100780009F0997FF19C0DF91CF911F910F91FF90A3
:10079000EF90DF90CF9008951092920290933001E5
:1007A00080932F01DF91CF911F910F91FF90EF90D8
:1007B000DF90CF900C945F018FEF9FEFC017D107B0
:1007C00014F481E090E0C80FD91FD0933001C0939A
:1007D0002F01CE010E945F0181E00C171D0709F473
:1007E00080E0809392020E946B03AB01BC012091D8
:1007F000970288E790E0A0E0B0E0821B9109A10990
:10080000B109840F951FA61FB71F80939302909381
:100810009402A0939502B0939602B5CFAF92BF9287
:10082000CF92DF92EF92FF920F931F93CF93DF93BC
:100830006C017B018B01040F151FEB015E01AE18EB
:10084000BF08C017D10759F06991D601ED91FC910D
:100850000190F081E02DC6010995892B79F7C5013A
:10086000DF91CF911F910F91FF90EF90DF90CF908C
:10087000BF90AF9008952091980130919901281769
:10088000390771F49091960180919701981741F082
:10089000E0919601F0E0EC5AFE4F808190E00895DF
:1008A0008FEF9FEF08950895EF92FF920F931F939C
:1008B000CF93DF93DC015C96ED90FC905D97E114A3
:1008C000F10479F481E090E013969C938E93129753
:1008D00090E080E0DF91CF911F910F91FF90EF901A
:1008E00008955196ED91FC91529750968C915097A6
:1008F000982F90950FB75E962C915E97122F1270DD
:1009000021FD6095F8942081112319F1282B208373
:10091000E7012197F1F728E0462F50E0308160FF92
:100920001AC0382B3083E7012197F1F7BA0175958A
:100930006795215089F7112381F080818923808375
:100940000FBF5C968D919C910197F1F781E090E04B
:10095000C1CF2923DCCF3923E5CF9081892BEFCF7D
:10096000EF92FF920F931F93CF93DF938C017B0144
:10097000D0E0C0E0F701EC0FFD1F6491662339F071
:10098000C8010E945404892B11F02196F3CFCE01A7
:10099000DF91CF911F910F91FF90EF9008952091DB
:1009A0009801309199012817390761F480919701D6
:1009B0002091960190E0805C9F4F821B91098F737C
:1009C0009927089590E080E0089520919801309152
:1009D000990128173907B9F49091960180919701F0
:1009E000981789F0E0919601F0E0EC5AFE4F808173
:1009F0002091960130E02F5F3F4F2F7333272093D4
:100A0000960190E008958FEF9FEF089590E080E0C9
:100A100008950E946B036A567F4F8F4F9F4F6093DC
:100A2000250270932602809327029093280208954E
:100A30008091600290916102039769F060919A0140
:100A4000613051F0623039F0809160029091610222
:100A500061E0892B09F060E08CE00C94AA0280939D
:100A6000BB0084E88093BC000E947703882369F070
:100A70009091B900987F81E0983131F0983229F057
:100A8000903419F080E008950895089584EA8093E1
:100A9000BC000E947703882351F09091B900987FA1
:100AA00081E0983021F0903111F080E008950895B0
:100AB000CF92DF92EF92FF9284E98093BC000E9474
:100AC0006B036B017C018091BC0084FF0DC00E9410
:100AD0006B036C197D098E099F09633071058105CF
:100AE000910588F31092BC00FF90EF90DF90CF90BB
:100AF0000895CF930E944605811104C0CFEF8C2F3B
:100B0000CF910895C09131018C2F880F0E942F053D
:100B1000811103C00E945805F1CF85E70E942F057F
:100B20008823C1F30E944605882341F38C2F880F48
:100B300081600E942F05882369F384E88093BC00BC
:100B40000E9477038823D1F2C091BB000E94580510
:100B5000D6CF8F929F92AF92BF92CF92DF92EF92B9
:100B6000FF921F93CF93DF9300D000D000D0CDB77A
:100B7000DEB75C016B017A010E944605811113C04A
:100B800080E026960FB6F894DEBF0FBECDBFDF9192
:100B9000CF911F91FF90EF90DF90CF90BF90AF90DB
:100BA0009F908F90089510913101812F880F0E949E
:100BB0002F05811103C00E945805E2CF8BE30E94EC
:100BC0002F058823C1F30E9446058823C9F2812F8F
:100BD000880F81600E942F05882369F3CE0101965A
:100BE0004C0110E084EC153009F484E88093BC00DB
:100BF0000E947703882329F28091BB00F40181933E
:100C00004F011F5F163071F70E94580589819A8144
:100C1000982789279827F501918380838B819C8170
:100C2000982789279827F601918380838D819E815B
:100C3000982789279827F7019183808381E0A1CFA6
:100C4000CF93DF93D82FC62F0E944605882349F003
:100C500080913101880F0E942F05811104C00E94EC
:100C6000580581E00DC08D2F0E942F058823B9F310
:100C70008C2F0E942F05882391F30E94580580E055
:100C8000DF91CF910895CF93A89588E680933101A5
:100C90000E944605811103C080E0CF91089580ED48
:100CA0000E942F05C82F0E945805CC23A9F360E0AD
:100CB0008BE60E9420068111EFCF63E070E080E0B8
:100CC00090E00E943903A8950E947905883611F0BA
:100CD000803711F760E08BE60E9420068111DCCF9F
:100CE00063E070E080E090E00E94390369E089E110
:100CF0000E9420068111D0CF65E08AE10E94200683
:100D00008111CACF60E18CE10E9420068111C4CF1D
:100D10000E947905883619F0803709F0BDCF81E04F
:100D20008093100210920B02B8CF60E08AE00E941C
:100D3000AA0260E088E00C94AA0260E088E00E94C9
:100D4000AA0261E08AE00C94AA0220912F0130915E
:100D5000300137FD08C0281B390B2D5F3F4F81E064
:100D60002730310508F080E00895CF93DF93EC0140
:100D70000E94A5068823A1F08091600290916102F3
:100D800020910801309109012817390741F481E0C9
:100D900020910601309107012C173D0709F080E0F2
:100DA000DF91CF910895209160023091610223304C
:100DB000310509F1109292021092290210922A0232
:100DC00010922B0210922C0221E0209324022FEF8C
:100DD0003FEF30930901209308019C01853B910569
:100DE00014F024EB30E037FF02C030E020E0309315
:100DF0000701209306010895109292021092290291
:100E000010922A0210922B0210922C0208958FEF5A
:100E10009FEF9093090180930801909307018093BD
:100E2000060110929C011092290210922A0210923F
:100E30002B0210922C021092250210922602109280
:100E400027021092280210929202089580912102A6
:100E500081110DC08091300281110BC08091B701CA
:100E6000813039F09091B70181E0923019F080E043
:100E7000089581E00895CF92DF92EF92FF920E9451
:100E80002607811120C0C090F901D090FA01E090AE
:100E9000FB01F090FC01C114D104E104F10499F0CC
:100EA0000E946B03DC01CB018C199D09AE09BF09BF
:100EB0008827B7FD83959927AA27BB27FF90EF9036
:100EC000DF90CF90089580E0F9CF809124028111C6
:100ED0001CC080919202811118C0809131029091C2
:100EE0003202181619068CF080912F019091300172
:100EF000853B910548F00E94DB01853B910520F080
:100F000080911F029091200208950E94DB01853B91
:100F1000910550F7089580912E0181110C94650779
:100F20000E94DB01853B9105C8F708950F931F933D
:100F300082E00E948102019751F01092A601109266
:100F4000A7011092A8011092A90120E028C00E94D8
:100F50006B030091A6011091A7012091A801309187
:100F6000A901012B022B032B41F46093A60170937E
:100F7000A7018093A8019093A9010091A601109167
:100F8000A7012091A8013091A901601B710B820B70
:100F9000930B21E06A3F710581059105B0F2822F24
:100FA0001F910F9108950F931F9382E00E94810279
:100FB000019751F41092AA011092AB011092AC016A
:100FC0001092AD0120E028C00E946B030091AA019D
:100FD0001091AB012091AC013091AD01012B022B9E
:100FE000032B41F46093AA017093AB018093AC0191
:100FF0009093AD010091AA011091AB012091AC0139
:101000003091AD01601B710B820B930B21E0683CAA
:10101000710581059105B0F2822F1F910F910895FE
:101020000E942607282F81110CC0809160029091A8
:101030006102039739F082E00E94810221E001976A
:1010400009F020E0822F08950F931F938091E6010D
:101050009091E701A091E801B091E901892B8A2BD9
:101060008B2BC9F00E946B030091E6011091E70100
:101070002091E8013091E901DC01CB01801B910B4B
:10108000A20BB30B8827B7FD83959927AA27BB2707
:101090001F910F91089580E0FBCF0F931F930E9443
:1010A0002408882319F18091AF019091B001A0919B
:1010B000B101B091B201892B8A2B8B2BB1F00E9428
:1010C0006B030091AF011091B0012091B1013091FB
:1010D000B201AB01BC01401B510B620B730B81E0F1
:1010E000403157426105710508F080E01F910F9172
:1010F00008958091AF019091B001A091B101B0919C
:10110000B201892B8A2B8B2B11F00C94240880E0E0
:1011100008951092E6011092E7011092E8011092F2
:10112000E90181E08093E5011092AF011092B001D6
:101130001092B1011092B20108951092E60110923E
:10114000E7011092E8011092E9011092E501109276
:10115000AF011092B0011092B1011092B201089546
:101160000E946B036093AF017093B0018093B10153
:101170009093B201605F784D8F4F9F4F6093E6016F
:101180007093E7018093E8019093E9011092E501E3
:101190000895CF92DF92EF92FF92C0909D01D09080
:1011A0009E01E0909F01F090A001C114D104E104E0
:1011B000F10441F00E946B0321E06C157D058E0562
:1011C0009F0508F020E0822FFF90EF90DF90CF90F6
:1011D0000895CF92DF92EF92FF920E946B036B0112
:1011E0007C010E94C908882341F061E089E0FF90FA
:1011F000EF90DF90CF900C94AA02809160029091C2
:1012000061020397C1F480911B028823A1F0109220
:10121000E6011092E7011092E8011092E9011092A4
:10122000E5011092AF011092B0011092B10110923D
:10123000B20160E0DBCF0E942607811113C08091CC
:10124000E6019091E701A091E801B091E901892BB5
:101250008A2B8B2BB9F48091E501811124C00E9467
:101260002408C3CF82E00E948102892B41F71092AB
:10127000E6011092E7011092E8011092E901109244
:10128000E501D7CF8091E6019091E701A091E801B7
:10129000B091E901C81AD90AEA0AFB0AF7FCDBCFC8
:1012A0000E948908D8CF82E00E948102892BB9F67A
:1012B000C0CF833008F081E0809310019DE2899FC8
:1012C00090011124205E3C4F30930F0120930E01BA
:1012D00029E333E0882331F02EE833E0813011F444
:1012E00026E633E030930D0120930C0194E0981B27
:1012F00090930B01823009F083E080930A010895F6
:101300001092BD011092BC01109248011092490147
:1013100010924A0110924B01089510924C011092C4
:101320004D0110924E0110924F011092B80110928F
:10133000B9011092BA011092BB010C9480090E946D
:101340006B0360934C0170934D0180934E01909319
:101350004F016093B8017093B9018093BA019093E3
:10136000BB016093B3017093B4018093B501909376
:10137000B6010C9480090E9447020C9447028091A8
:10138000A10181110AC080911F02909120020A9749
:1013900097FF07C090E080E0089580911F02909130
:1013A000200208958091A101882349F00E94D3076B
:1013B000882329F080911F02909120020895809146
:1013C0001C0281110C94BF0980911F029091200290
:1013D0000A9797FF02C090E080E008958091AE01E7
:1013E00081110AC0209160023091610281E02130B8
:1013F000310519F080E0089581E008958091A10100
:1014000081110AC02091CC013091CD0181E02130C1
:10141000310519F080E0089581E008958091A201DE
:10142000882371F08091A201813051F02091C00198
:101430003091C10181E02130310539F080E005C0F3
:101440009091A20181E09130C9F70895CF92DF9287
:10145000EF92FF9280911C02882311F080E027C058
:10146000809121028111FACF0E940E0A8823B1F3E4
:1014700080919702843690F3C0904C01D0904D013A
:10148000E0904E01F0904F01C114D104E104F10449
:1014900029F30E946B03AB01BC014C195D096E0975
:1014A0007F0981E04131574261057105B8F6FF902F
:1014B000EF90DF90CF90089580912102882311F062
:1014C00080E021C080911C028111FACF80919C01A3
:1014D000882381F080912E01882361F080914C0156
:1014E00090914D01A0914E01B0914F01892B8A2B13
:1014F0008B2B31F30E940E0A882311F390919702EF
:1015000081E09436E8F20895CF93DF9380916002F2
:1015100090916102892B21F080E0DF91CF910895B5
:1015200080919202811127C08091290290912A0214
:10153000A0912B02B0912C02892B8A2B8B2BD9F4F2
:1015400080912102811112C00E94D209EC010E94F7
:101550008B0797FD05C08C1B9D0B03960797E0F248
:10156000CE010E94A50691E08927D7CFC0911F0226
:10157000D0912002ECCF81E0D0CF80916002909199
:1015800061020197F9F480916002909161020197E4
:1015900019F58091920281111DC0809129029091CC
:1015A0002A02A0912B02B0912C02892B8A2B8B2B23
:1015B00089F480912202909123020E94A50691E075
:1015C000892708958091600290916102892B21F40E
:1015D0000C94840A81E0089580E00895809160026F
:1015E000909161020397C1F0809160029091610235
:1015F000892B59F08091600290916102019729F046
:10160000809160029091610208950E94BD0A882332
:10161000B9F382E090E0089583E090E008958F921E
:101620009F92AF92BF92CF92DF92EF92FF920F9371
:101630001F938091A301811134C08091C8019091C2
:10164000C901A091CA01B091CB01892B8A2B8B2BA8
:1016500031F10E946B030091C8011091C9012091E2
:10166000CA013091CB01C090C401D090C501E09077
:10167000C601F090C7014B015C01801A910AA20AD1
:10168000B30A95018401B701A6014E5C5F4F6F4F0D
:101690007F4F81E0041715072607370718F080E011
:1016A00001C081E01F910F91FF90EF90DF90CF90EC
:1016B000BF90AF909F908F9008958091600290911D
:1016C0006102039709F472C010922502109226025B
:1016D000109227021092280261E08BE00E94AA0279
:1016E00080912E01882309F461C08091BC028C3066
:1016F00008F051C061E084E00E94D8028091BC02F1
:10170000282F30E0F901EE0FFF1FE20FF31FE8561C
:10171000FD4F9081907C946090831092BD02109256
:10172000BE022CE0622F0E946F3B829FB001112409
:1017300030E020E0AB01420F531FFA01EE0FFF1F14
:10174000E40FF51FE856FD4F908196FD16C02F5F00
:101750003F4F2C30310571F781110FC0109280007E
:1017600082E0809381001092850010928400B19AEB
:1017700080916F00826080936F00E091BC028E2F99
:1017800090E0FC01EE0FFF1FE80FF91FE856FD4F38
:1017900080818064808310922E0180912F0190912E
:1017A0003001853B910510F40C945F010895CF93AF
:1017B000DF93853B910514F084EB90E0EC0197FFFB
:1017C00002C0D0E0C0E0D0933001C0932F018091DF
:1017D0006002909161029093090180930801D09377
:1017E0000701C093060180912E01811115C00E944E
:1017F000DB01853B910548F48C1B9D0B97FF03C0D3
:1018000091958195910903971CF0CE010E945F018B
:10181000DF91CF910C940905DF91CF91089560E09D
:101820008BE00C94AA02E091BC028E2F90E0FC01A8
:10183000EE0FFF1FE80FF91FE856FD4F80818F7BE9
:10184000808381E080932E0110922502109226025F
:1018500010922702109228020C940F0CCF93C62FDF
:10186000682F88E00E94AA026C2F8AE0CF910C9426
:10187000AA020E94790860E0811124C08091B7011A
:10188000813019F18091B701823079F080919B010C
:101890008230D9F080913002811107C080913102ED
:1018A00090913202181619060CF50E946B0328E17C
:1018B00031E040E050E00E94A53860E081E020FD8A
:1018C00002C061E080E00C942E0C60E08AE00E948F
:1018D000AA020E946B0324EB30E040E050E00E943B
:1018E000A538622F617088E00C94AA0208950E94C6
:1018F0007908882319F060E080E017C00E9426076D
:1019000081112BC080913102909132021816190674
:1019100024F18091600290916102039761F30E942B
:101920003B07882321F060E081E00C942E0C80912D
:101930002102811110C00E94D307882331F08091C9
:10194000CC019091CD010197B1F680916002909108
:101950006102019781F661E0CFCF0895CF93DF93C5
:101960000E94FC061092330210923402109235024B
:101970001092360280912F02811108C080912D02B1
:10198000811104C0109232021092310210921B0297
:10199000109221020E948B07EC01853B910550F0CB
:1019A000C0912F01D0913001C53BD10518F00E94A4
:1019B000D209EC0110926102109260020E94770C31
:1019C00081E08093240210929C010E940707D0932B
:1019D0003001C0932F011092D2011092D3011092C6
:1019E000D4011092D501DF91CF910895CF93DF9369
:1019F000C0911F02D0912002882309F489C02A9740
:101A0000D7FF02C0D0E0C0E08091600290916102F7
:101A1000892B09F050C08091920281114CC0CE01F7
:101A20000E94B506882309F446C0DF91CF9108953E
:101A30008091080190910901892B09F048C080919B
:101A40000601909107018C179D0709F040C0EDCF6A
:101A50000E948B07C81BD90B23970CF09AC0E5CFC7
:101A600080919202811137C08091290290912A02BF
:101A7000A0912B02B0912C02892B8A2B8B2B59F52C
:101A80001092500110925101109252011092530184
:101A90000E945C0A882329F010929C010E949F09F1
:101AA00078C00E940E0A882309F473C080919702BF
:101AB000843690F76EC08091600290916102892B0C
:101AC00031F4CE010E94B506882309F4B1CF80918C
:101AD0002402882329F20E94800910923302109276
:101AE0003402109235021092360210922F02109298
:101AF0002E020E946B036E537E4F8F4F9F4F609359
:101B00005001709351018093520190935301C0CFC3
:101B10000E948D090E94FE098823D1F082E00E9474
:101B20008102892BA9F481E080931C020E948D0917
:101B30001092330210923402109235021092360243
:101B400010923202109231021092BD011092BC012B
:101B50000E94BF09EC018091600290916102892B83
:101B6000C1F480919202811114C0CE010E94B50689
:101B7000882379F00E948B078C1B9D0B1816190681
:101B80000CF066CF0E948B078C1B9D0B03970CF407
:101B90004CCF8091600290916102039709F445CF88
:101BA000DF91CF910C94AE0C809160029091610214
:101BB000039719F081E00C94F60C08950F931F938E
:101BC000CF93DF93C82F80916002909161020197BB
:101BD000D1F4CC2359F08091600290916102039777
:101BE000A9F4DF91CF911F910F9108958091220266
:101BF000909123020E94B5068111F3CF0E94100834
:101C00008111E9CFEECFC111E6CFF8CF8091240248
:101C1000811186C080919202811182C08091290237
:101C200090912A02A0912B02B0912C02892B8A2B31
:101C30008B2B09F075C0CC2309F469C00E94FC0607
:101C40001092330210923402109235021092360232
:101C5000C11102C010922F02109221020E948B0724
:101C60008C01853B910558F000912F0110913001B6
:101C7000053B110520F000911F021091200281E028
:101C800090E09093610280936002D1E0D093AE0126
:101C90000E94770C0E94070710929C01109330015C
:101CA00000932F01D09324020E945C0A882331F113
:101CB00010923302109234021092350210923602C2
:101CC000C11104C010923202109231020E946B03C3
:101CD0006093B8017093B9018093BA019093BB01EE
:101CE000109248011092490110924A0110924B0142
:101CF0001092BD011092BC010E949F091092D20166
:101D00001092D3011092D4011092D5016ACF109293
:101D100050011092510110925201109253018ECF36
:101D2000C1118CCF0E9480091092320210923102B0
:101D30001092330210923402109235021092360241
:101D400010922F0210922E020E946B03605E7C4F55
:101D50008F4F9F4F609350017093510180935201B8
:101D6000909353016BCF0F931F93CF9382E00E9408
:101D700081028C01C1E0019709F0C0E0809160020E
:101D800090916102039769F48091A401C0931101BD
:101D9000811103C081E08093A401CF911F910F9125
:101DA000089580911E028111F8CF8091A4018111C4
:101DB00005C0C093110181E08093A4010E949607A1
:101DC000882359F01092A50110921D0281E08093A2
:101DD000AE011092370210921C020E94C9088111B4
:101DE000C2C080911101882369F00130110551F0C2
:101DF0000E942607811106C01092A5010E94B0081A
:101E00000E94E9080E94D307882381F18091A501EF
:101E100081112CC00E94EE09882341F181E080935A
:101E2000A5010E94260781111FC00E94FE09882378
:101E300031F08091600290916102039759F40E9401
:101E4000FE09811184C00E94FE0981110DC00E940B
:101E5000770C0AC08091600290916102892B09F48D
:101E60004DC080E00E94F60C0E94E9080E94C9085B
:101E7000811120C00E94260781111CC00E94D30737
:101E80008823C1F08091AE018823A1F08091E60102
:101E90009091E701A091E801B091E901892B8A2B8B
:101EA0008B2B41F48091E501811104C00E94B008A0
:101EB0000E94E9080E9496078823E9F00E947908A9
:101EC000811104C08091E5018823A9F0809160020E
:101ED00090916102039709F05EC00E94240881116D
:101EE00004C08091E501882321F00E949D080E9492
:101EF000E9080E94E908C09311014FCF8091A10128
:101F0000882309F4B1CF0E948B0720911F023091E2
:101F10002002821B930B1816190664F40E948B078B
:101F200020911F0230912002821B930B03970CF427
:101F30009BCF97CF00911F02109120020E948B0728
:101F4000081B190B033011050CF08BCF8DCF80913E
:101F5000600290916102892B09F475CF8091600233
:101F60009091610270CF0E94D307882309F47ECF3D
:101F70008091A50181117ACF0E94EE09882309F48E
:101F800075CF0E94FE09882309F470CF809160020A
:101F9000909161026BCF85EA8093BF0280916002CD
:101FA00090916102039739F480911B02882319F004
:101FB00087EA8093BF0261E089E00E94D80261E075
:101FC00089E00E94AA02F89414BE0FB6F894A8956E
:101FD00080916000886180936000109260000FBE65
:101FE0000C940000FFCFBC0182E692E00E943D38D5
:101FF00021E0892B09F020E0822F08958F929F9293
:10200000AF92BF920F931F93CF93DF93CDB7DEB7FD
:10201000A1970FB6F894DEBF0FBECDBF19A2423014
:1020200008F44AE08E010F5D1F4F842E912CB12CD5
:10203000A12CA50194010E94A538E62FB901CA017F
:10204000EA3044F5E05DD801EE938D01232B242B7B
:10205000252B79F790E080E0109769F0FD01019061
:102060000020E9F73197AF014A1B5B0BBD0181E40A
:1020700092E00E940E04A1960FB6F894DEBF0FBE48
:10208000CDBFDF91CF911F910F91BF90AF909F90E7
:102090008F900895E95CD7CF42E050E064E471E0AE
:1020A0000C940E04CF93DF93BC0181E492E00E9474
:1020B000B004EC0181E492E00E944C108C0F9D1F53
:1020C000DF91CF910895E2E6F2E001900020E9F778
:1020D000E356F2408E2FFF27EE59FD4F882389F0FB
:1020E00092919D3031F09A3021F0903211F093327C
:1020F00039F48150A82FB0E0AE59BD4F1C92EECFFD
:1021000080E0682F70E06E597D4FFB019081903226
:1021100021F09D3011F09A3011F48F5FF2CF8823B7
:1021200051F001900020E9F7AF01461B570B82E602
:1021300092E00C949C3B0895CF92DF92EF92FF9235
:10214000CF93DF936C01990FEE08FF08F7FE19C0DB
:102150006DE281E492E00E945404EC016627772747
:10216000CB016C197D098E099F094AE00E94FE0F80
:102170008C0F9D1FDF91CF91FF90EF90DF90CF905C
:1021800008954AE0C701B601DF91CF91FF90EF902B
:10219000DF90CF900C94FE0F0F931F93CF93DF939C
:1021A0008C01EB010E945D388883C80101960E9472
:1021B0005D388983CE01DF91CF911F910F910895F2
:1021C000CF93DF93EB010E945D388883CE01DF91CE
:1021D000CF9108950C945D38FF920F931F93CF9386
:1021E000DF93EC01F62E08811981C8010E945D3849
:1021F000F81621F06F2DC8010E946538CE01DF91DD
:10220000CF911F910F91FF900895EF92FF920F933E
:102210001F93CF93DF9300D0CDB7DEB78C017B0146
:102220009A838983FB016081CE0101960E94EC10A4
:102230000F5F1F4F1A830983F7016181CE01019659
:102240000E94EC10C7010F900F90DF91CF911F916A
:102250000F91FF90EF9008950F931F93CF93DF930B
:1022600000D0CDB7DEB78B019A838983FB016081F3
:10227000CE0101960E94EC10C8010F900F90DF91E3
:10228000CF911F910F910895CF93DF931F92CDB7F8
:10229000DEB71092B7011982BE016F5F7F4F87E1F1
:1022A00090E00E942C110F90DF91CF910895CF9371
:1022B000DF9300D0CDB7DEB79A838983CE01019634
:1022C0000E94EC100F900F90DF91CF91089564EB76
:1022D00088E290E00C94571180910E0190910F01CB
:1022E0008835924034F488E592E090930F01809312
:1022F0000E0180910E0190910F018115944034F0F0
:102300008FEF93E090930F0180930E0180910C0169
:1023100090910D018835924034F488E592E09093D5
:102320000D0180930C0180910C0190910D0181159C
:10233000944034F08FEF93E090930D0180930C0163
:1023400080910B018150883018F083E080930B015D
:1023500080910A018150883018F083E080930A014F
:102360006EE071E08EE390E00E9405116CE071E098
:1023700080E490E00E94051160910B0182E490E0FE
:102380000E94571160910A0183E490E00E94571166
:10239000609110018DE390E00E9457110C94671139
:1023A0004F925F926F927F928F929F92AF92BF9265
:1023B000CF92DF92EF92FF920F931F93CF93DF9311
:1023C000CDB7DEB7A0970FB6F894DEBF0FBECDBF76
:1023D0000E946310009162020023A9F18BEC91E04E
:1023E0000E94F30F182F811105C084EC91E00E9428
:1023F000F30F182F023409F05FC0809163028B3411
:10240000C9F5809164028111A9C00E94260781113B
:102410000EC00E946B036C507E4F8F4F9F4F609396
:10242000F9017093FA018093FB019093FC01112351
:1024300051F00E946B036093C8017093C9018093AF
:10244000CA019093CB01A0960FB6F894DEBF0FBEE1
:10245000CDBFDF91CF911F910F91FF90EF90DF9053
:10246000CF90BF90AF909F908F907F906F905F9034
:102470004F900895833509F071C09091640260ED2A
:10248000690F6A3008F06AC080916502882359F0AC
:10249000913309F063C0803309F060C08091660217
:1024A00081115CC06AE060931A018CE390E00E94A5
:1024B00057110E946711BBCF033509F091C080917D
:1024C0006302833579F4809164028053833008F08D
:1024D00045C090916502911141C00E9459090E9426
:1024E0006C11A5CF8035D1F58091640280538A307C
:1024F000A8F5A4E6B2E030E020E0E0E04AE08D910B
:1025000090ED980F9A30B0F4429FB001439F700D48
:102510001124082E000C990BC0979C01260F371F21
:10252000203157E23507D4F49E2F02C030E020E07E
:10253000E92FE5CFE43008F0EEC491E09E0FF0E023
:10254000EE0FFF1F61E070E06C0F7D1FE60FF71FBD
:10255000318320838C32B1F4943041F787EB91E0E2
:102560000E94F30F882309F48FC20E944411109235
:10257000D2011092D3011092D4011092D5010E9481
:102580002C1855CFE92FE43049F78111E7CF698145
:102590007A81CB0188559240883A9140F8F64B8178
:1025A0005C81CA0188559240883A9140B8F62D81E5
:1025B0003E81C9010197089788F68F819885FC01B3
:1025C0003197389758F670930F0160930E0150932E
:1025D0000D0140930C0120930B0180930A017FCFE2
:1025E0000C34F9F48091630290ED980F923018F05A
:1025F000813409F0B3CF909164029111AFCF61E0C3
:10260000813321F062E0803309F060E060939A0149
:102610008FE290E00E9457110E9467110E941805F6
:1026200006CF033409F09ACF809163028C3409F00D
:1026300051C080916402811191CF8091100281116B
:1026400005C083EA91E00E945210F1CEC090EA01E9
:10265000D090EB01E090EC01F090ED0120E030E053
:10266000A901C701B6010E94433987FF04C0F7FAE8
:10267000F094F7F8F09420E030E040E251E4C70134
:10268000B6010E94A73A20E030E040E05FE30E94FC
:10269000D7380E94BA39709319016093180140919C
:1026A0001601509117019A012D5E3F4F26173707EB
:1026B00034F0CA014496909319018093180168E19F
:1026C00071E089E290E00E9405110E9467118DE996
:1026D00091E0B9CF853509F041CF80916402811135
:1026E0003DCF80911002811103C086E991E0ABCF0C
:1026F0000E94BD0A811147C180919202811143C19C
:102700000091240201113FC184E0782E1D8E1E8E9F
:102710001F8E18A2C12CD12C7601812C912C540132
:10272000AE014F5F5F4FBE01675E7F4FCE014B969C
:102730000E94A905882339F18B8D9C8D092E000CF0
:10274000AA0BBB0B880E991EAA1EBB1E898D9A8DE3
:10275000092E000CAA0BBB0BC80ED91EEA1EFB1ECD
:1027600089819A81092E000CAA0BBB0B4D8D5E8DC1
:102770006F8D78A1480F591F6A1F7B1F4D8F5E8F89
:102780006F8F78A30F5FA8957A947110C9CF02302C
:1027900048F410920A0280910A028111F7C088E879
:1027A00091E051CF602F70E090E080E00E94F0391E
:1027B0002B013C01C501B4010E94F239A301920131
:1027C0000E9448394B015C01C701B6010E94F239F1
:1027D000A30192010E9448396B017C016D8D7E8DB1
:1027E0008F8D98A10E94F239A30192010E9448396D
:1027F0006D8F7E8F8F8F98A3A5019401C501B401C1
:102800000E94A73A2B013C01A7019601C701B6011E
:102810000E94A73A9B01AC01C301B2010E94D738C4
:102820002B013C012D8D3E8D4F8D58A1CA01B90160
:102830000E94A73A9B01AC01C301B2010E94D738A4
:102840000E941A3B2B013C012DEC3CEC4CEC54E477
:102850000E94433987FD9DCF26E636E646EE55E4D5
:10286000C301B2010E94A23A18160CF492CFA30140
:102870009201C501B4010E9448394B015C0180926C
:10288000060290920702A0920802B0920902A301E8
:102890009201C701B6010E9448396B017C01C092C8
:1028A0000202D0920302E0920402F0920502A30118
:1028B00092016D8D7E8D8F8D98A10E9448392B01DC
:1028C0003C014092290150922A0160922B017092A2
:1028D0002C0120E030E0A901C501B4010E94433978
:1028E00087FF04C0B7FAB094B7F8B09420E030E0A6
:1028F000A901C701B6010E94433987FF04C0F7FA56
:10290000F094F7F8F094A7019601C501B4010E9474
:10291000A23A1816A4F1109201027501640120E098
:1029200030E0A901C301B2010E94433987FF04C00E
:1029300077FA709477F87094A3019201C701B601F9
:102940000E94A23A18161CF482E08093010281E0F2
:1029500080930A0280E090E0A0E8BFE38093250125
:1029600090932601A0932701B09328018093210121
:1029700090932201A0932301B09324010CCF81E016
:1029800080930102CCCF8FE891E05DCE20E030E073
:102990004AE754E4609106027091070280910802B0
:1029A000909109020E94A73A0E94BA397A836983FA
:1029B000BE016F5F7F4F82E390E00E94051120E02F
:1029C00030E04AE754E46091020270910302809182
:1029D0000402909105020E94A73A0E94BA397A83B4
:1029E0006983BE016F5F7F4F84E390E00E94051111
:1029F00020E030E04AE754E46091290170912A0117
:102A000080912B0190912C010E94A73A0E94BA3923
:102A10007A836983BE016F5F7F4F86E390E00E94F7
:102A200005116091010281E390E00E94571161EC71
:102A300080E390E00E9457111092EA011092EB019E
:102A40001092EC011092ED0180E090E0A0E8B0E47B
:102A50008093120190931301A0931401B093150178
:102A600082E080932D0183E290E0909317018093A0
:102A7000160166E171E08BE290E00E9405110E9470
:102A8000671182E891E0DFCD8AEA91E00E94F30FBE
:102A9000882319F00E941E1BCACC083461F480916F
:102AA00063028053823080F58091640281112CC0D2
:102AB0000E94701ABCCC003539F59091630280ED0C
:102AC000890F823008F58091640281111DC081E078
:102AD000913309F080E08093A10161EA71E08FE019
:102AE00090E00E942C118091A101882309F381E0DC
:102AF00090E09093CD018093CC016CEC71E085E087
:102B000090E00E940511D4CF8FE691E00E94F30F70
:102B1000882351F081E08093D70167ED71E08CE16B
:102B200090E00E942C11C4CF8CE591E00E94F30F3D
:102B3000882319F01092D701F0CF47E150E065E506
:102B400071E0CE0101967C010E944638188EF70193
:102B500001900020E9F731976F01CE18DF08A60138
:102B6000B70182E692E00E94AE3B892BC1F4C60118
:102B70008E599D4F0E941F3897FD11C085369105D3
:102B800014F084E690E08A30910514F48AE090E035
:102B90008093970267E972E089E190E0C2CF88E410
:102BA00091E00E94F30F882379F081E090E0909308
:102BB000CD018093CC016091CC017091CD0185E075
:102BC00090E00E94B21A33CC8BE391E00E94F30FA5
:102BD000882329F01092CD011092CC01ECCF8EE227
:102BE00091E00E94F30F882379F081E090E09093C8
:102BF000C1018093C0010E9444116091C001709195
:102C0000C10187E090E0DDCF81E291E00E94F30F07
:102C1000882369F01092C1011092C0010E944411F2
:102C20001092BD011092BC010E948D09E6CF84E193
:102C300091E00E94F30F882361F01092BF0110927F
:102C4000BE011A821982B70189E090E00E94051145
:102C50002FCF87E091E00E94F30F882349F081E0B5
:102C600090E09093BF018093BE019A838983EBCF5C
:102C700084EF90E00E94F30F882341F081E080937D
:102C8000A20162EA71E08DE190E04BCF81EE90E02D
:102C90000E94F30F882319F01092A201F2CF84EC66
:102CA00091E00E94F30F882351F08091600290918F
:102CB0006102039709F4BBCB0E94D40DB8CB0E94EC
:102CC00026078111B4CB84ED90E00E94F30F882396
:102CD00089F08091600290916102039709F4A7CB7B
:102CE0008091600290916102039709F4A0CB0E9449
:102CF0003C249DCB87EC90E00E94F30F882351F099
:102D00008091600290916102039709F090CB0E943C
:102D1000BC258DCB8091600290916102039709F4EC
:102D200086CB8BEC91E00E94F30F882381F00E9408
:102D30001008882309F47BCB809160029091610296
:102D4000019709F474CB80E00E94DE0D70CB8DEB0F
:102D500090E00E94F30F8823E1F18091600290914E
:102D60006102039751F081E090E0909361028093BB
:102D7000600210929C010E94770C0E94DB01853B4F
:102D80009105ACF084EB90E09093230280932202B3
:102D900062E272E081E090E00E9405111092D2019F
:102DA0001092D3011092D4011092D50140CB8091A2
:102DB0002202909123020296909323028093220292
:102DC0000E94070780912202909123020E94032310
:102DD000DFCF86EB90E00E94F30F8823F9F080911B
:102DE000600290916102039751F081E090E090932E
:102DF00061028093600210929C010E94770C0E94F5
:102E0000DB0197FF05C01092230210922202C0CF6F
:102E100080912202909123020297CECF89EA90E01E
:102E20000E94F30F8823A9F08091600290916102C3
:102E3000039751F081E090E09093610280936002EB
:102E400010929C010E94770C8091D0019091D10149
:102E5000B3CF89E990E00E94F30F8823A9F0809115
:102E6000600290916102039751F081E090E09093AD
:102E700061028093600210929C010E94770C809105
:102E8000CE019091CF0198CF89E890E00E94F30F96
:102E90008823A9F086E990E09093200280931F0296
:102EA0000E94070780911F02909120020E94D30682
:102EB0006FE172E083E090E00E94051158CB86E755
:102EC00090E00E94F30F882379F080916002909146
:102ED0006102039731F080911F02909120020E94BD
:102EE00044270E94770C43CB8FE690E00E94F30FBB
:102EF000882339F08FEF9FEF0E9480270E94770C84
:102F000096CA88E690E00E94F30F882309F48FCADE
:102F100081E090E0F1CF8C3209F420CB34CBCF921A
:102F2000DF92EF92FF920F931F93CF93C9E281E458
:102F300092E00E94CF04892B09F456C0C15009F4D5
:102F400053C0A89581E492E00E94E50497FD4CC02F
:102F5000E091A3018D3011F08A3059F4EE2339F35A
:102F60001092C8011092C9011092CA011092CB01AF
:102F7000DECF8332E1F4EF3240F491E09E0F909384
:102F8000A301F0E0EE59FD4F8083E091A301F0E052
:102F9000EE59FD4F10821092A3010E9463108091A0
:102FA000620281110E94D01110926202D9CFE831E1
:102FB00020F01092A30110926202E091A301EF327F
:102FC00040F491E09E0F9093A301F0E0EE59FD4F85
:102FD00080830E946B036093C8017093C901809342
:102FE000CA019093CB01A3CFC091A301CC2361F17F
:102FF0000E946B03C090C801D090C901E090CA0143
:10300000F090CB010091C4011091C5012091C6013F
:103010003091C7016C197D098E099F0906171707A2
:103020002807390788F4EC2FF0E0EE59FD4F1082A5
:103030001092A3010E94631080916202882321F004
:103040000E94D01110926202CF911F910F91FF90B8
:10305000EF90DF90CF9008952F923F924F925F9222
:103060006F927F928F929F92AF92BF92CF92DF9298
:10307000EF92FF920F931F93CF93DF93CDB7DEB7FD
:1030800028970FB6F894DEBF0FBECDBF0E948F17F2
:103090000E940F0B811198C1309021023110C6C0DF
:1030A0008091B701813009F4BBC08091B7018230B3
:1030B00009F4B9C080919B01823009F4B1C08091BC
:1030C00030028111B0C08091330290913402A091FE
:1030D0003502B0913602CC24C394892B8A2B8B2BDA
:1030E00009F4C12C0E94BD0AD82E811107C0DD242D
:1030F000D39480919202811101C0D12C0E946B0364
:103100004B015C014090D2015090D3016090D401FA
:103110007090D50149825A826B827C8282E00E9443
:1031200081027C0185E00E9481028C018091040172
:103130009091050122242394E816F90641F4809128
:103140000201909103018017910709F4212C0E943C
:10315000EE0A98878F83209100013091010140E9A8
:1031600051E060E070E0DD2021F04EE551E060E0EC
:1031700070E021102CC06F8078846216730639F5D8
:10318000D501C40149805A806B807C8084199509DF
:10319000A609B70980399140A105B105C0F43110E5
:1031A00016C0C11014C08091D2019091D301A0919A
:1031B000D401B091D50124013501481A590A6A0A8F
:1031C0007B0A441655066606770608F4FDC0809211
:1031D000D2019092D301A092D401B092D5012220C5
:1031E00041F0F0920501E092040110930301009375
:1031F00002016F80788470920101609200018091D9
:10320000600290916102892BA1F0809160029091FF
:103210006102019771F0C0901F02D090200213C08C
:103220003324339450CF82E0382E4DCFC12C312C33
:1032300059CF8091600290916102019761F7C0902F
:103240002202D090230267E072E081E492E00E94C3
:10325000B004C6010E949C1061E072E081E492E03B
:103260000E94B004C7010E949C106BEF71E081E4E2
:1032700092E00E94B004C8010E949C1065EF71E0CA
:1032800081E492E00E94B0040E94EE0A0E949C1029
:103290006FEE71E081E492E00E94B004632D70E073
:1032A00090E080E04AE00E94FE0F69EE71E081E468
:1032B00092E00E94B00481E090E020911002211180
:1032C00002C090E080E00E949C1063EE71E081E417
:1032D00092E00E94B00420E030E040E251E46091CE
:1032E000EA017091EB018091EC019091ED010E9457
:1032F000A73A0E94BA39CB010E949C106DED71E093
:1033000081E492E00E94B00420E030E048EC52E416
:103310006091FD017091FE018091FF01909100028A
:103320000E94A73A0E94BA39CB010E949C1067ED17
:1033300071E081E492E00E94B00480911002882341
:1033400009F43FC080912D0190E00E949C1062ED35
:1033500071E081E492E00E94B00460911A0170E093
:1033600090E080E04AE00E94FE0F0E94EE0A029781
:1033700051F48091600290916102892B21F080913B
:1033800060029091610281E492E00E944C102896C4
:103390000FB6F894DEBF0FBECDBFDF91CF911F9166
:1033A0000F91FF90EF90DF90CF90BF90AF909F90E4
:1033B0008F907F906F905F904F903F902F900C94E4
:1033C0008F1790E080E0C1CF28960FB6F894DEBF4B
:1033D0000FBECDBFDF91CF911F910F91FF90EF9066
:1033E000DF90CF90BF90AF909F908F907F906F9025
:1033F0005F904F903F902F9008954F925F926F9201
:103400007F928F929F92AF92BF92CF92DF92EF9274
:10341000FF92CF93DF93EC010E946B034B015C01A1
:1034200024EF820E21E0921EA11CB11C412C512CD4
:1034300032010E946B03681979098A099B0997FF79
:103440003FC00E948F170E946B036B017C01DC015F
:10345000CB0184199509A609B709883C9105A105F6
:10346000B10520F00E942C18260137010E94B30EEE
:10347000A8950E94E90885E00E948102892BD9F471
:1034800088819981AA81BB810097A105B10529F4A2
:10349000C882D982EA82FB82CCCFC81AD90AEA0A4A
:1034A000FB0A80EDC81687E0D806E104F10408F4B1
:1034B000C0CF81E006C0188219821A821B82B9CF60
:1034C00080E0DF91CF91FF90EF90DF90CF90BF90A1
:1034D000AF909F908F907F906F905F904F900895E6
:1034E0001092D2011092D3011092D4011092D50102
:1034F0000C942C1810923302109234021092350260
:103500001092360210922F0210922E0210921B027D
:1035100060E08FE190E00E94571110923702109204
:103520009202109224021092290210922A02109202
:103530002B0210922C020E948D090E94FC060E9410
:10354000070781E080939C010E94130C0E94390CB4
:103550001092D2011092D3011092D4011092D50191
:103560000C942C18CF93DF9300D0CDB7DEB77A83BD
:103570006983BE016F5F7F4F0E9405111092D201D7
:103580001092D3011092D4011092D5010E942C18F0
:103590000F900F90DF91CF9108954F925F926F92AD
:1035A0007F928F929F92AF92BF92CF92DF92EF92D3
:1035B000FF926B017C010E946B03C60ED71EE81EB2
:1035C000F91E812C912C54010E946B036C197D090A
:1035D0008E099F0997FF25C00E948F170E946B03D9
:1035E0002B013C01DC01CB0188199909AA09BB090F
:1035F000883C9105A105B10540F00E940F0B811197
:1036000004C00E942C18530142010E94B30EA895D9
:103610000E94E908809130028823B1F20E94390C9F
:10362000D3CFFF90EF90DF90CF90BF90AF909F905F
:103630008F907F906F905F904F90089560E088E04A
:103640000E94AA0261E08AE00E94AA0260E570E09E
:1036500080E090E00E94CD1A60E08AE00E94AA0219
:103660000C94770C4F925F926F927F928F929F9201
:10367000AF92BF92CF92DF92EF92FF921F93CF93C0
:10368000DF93CDB7DEB72A970FB6F894DEBF0FBE33
:10369000CDBF853B910514F084EB90E09A87898734
:1036A00097FF02C01A86198680912F0190913001F0
:1036B000853B910510F089859A85A985BA85A81B57
:1036C000B90BB7FF03C0B195A195B1092CE130E06A
:1036D0000E948F3BDC01CB018E539E4FAF4FBF4FFB
:1036E000893027E09207A105B10520F088E097E036
:1036F000A0E0B0E089839A83AB83BC838438934095
:10370000A105B10540F484E893E0A0E0B0E089832E
:103710009A83AB83BC830E946B036D837E838F830C
:10372000988781E08093240280912E0181110E946C
:103730005D0B89859A850E945F01A985BA85B09342
:103740003001A0932F0110E0812C912C5401412CC9
:10375000512C32010E946B032D813E814F8158858F
:10376000621B730B840B950B29813A814B815C8121
:10377000621773078407950708F050C0A8950E9448
:10378000E9080E946B036B017C01DC01CB012D81F8
:103790003E814F815885821B930BA40BB50B8A3F4A
:1037A0009105A105B105C8F081149104A104B104EB
:1037B00051F0D701C60188199909AA09BB090597D3
:1037C000A105B10550F00E94BB09863693401CF458
:1037D0001F5F1330E8F5460157014114510461049D
:1037E000710451F0D701C60184199509A609B709DA
:1037F000CC97A105B10558F080912E0181110E944E
:103800005D0B89859A850E945F01260137016CE076
:1038100070E080E090E00E94CD1A9CCF81E01330F0
:1038200008F480E02A960FB6F894DEBF0FBECDBF35
:10383000DF91CF911F91FF90EF90DF90CF90BF90DD
:10384000AF909F908F907F906F905F904F90089572
:1038500081E0E8CFCF92DF92EF92FF92CF93DF9398
:1038600010926102109260020E94FC0610923302D4
:1038700010923402109235021092360210922F02EA
:1038800010922E021092210281E080939C010E94EE
:10389000070710922502109226021092270210921A
:1038A00028020E945D0BC0911F02D0912002C53BEF
:1038B000D10514F0C4EBD0E0D7FF02C0D0E0C0E0E7
:1038C0000E946B036B017C010E946B036C197D09E4
:1038D0008E099F09603B744081059105A0F4A8956D
:1038E00080912E0181110E945D0BCE010E945F012B
:1038F000D0933001C0932F0164E170E080E090E04C
:103900000E94CD1AE1CFCE010E94D70BD093300197
:10391000C0932F011092090110920801D093070162
:10392000C0930601DF91CF91FF90EF90DF90CF9091
:103930000C94770C4F925F926F927F928F929F922E
:10394000AF92BF92FF920F931F93CF93DF9381E0CB
:10395000809330029091B701923061F09091B7015D
:10396000911108C08093B70167EB71E087E190E0A7
:103970000E942C11109261021092600281E08093EB
:103980009C010E94FC0610923302109234021092A5
:1039900035021092360210922F0210922E020091E0
:1039A0001F02109120020250110917FF02C010E0FF
:1039B00000E0C0911F02D09120022A97D7FF02C0D9
:1039C000D0E0C0E084E1F82E90ED892E97E0992EAA
:1039D000A12CB12C0E946B032B013C01C8010E9459
:1039E000321BCE010E94321B811130C01092300276
:1039F0000E94441110929B011092320210923102E7
:103A000081E080939C011092610210926002CE01CD
:103A10000E94D70BD0933001C0932F010E94770CE6
:103A20001092D2011092D3011092D4011092D501BC
:103A3000DF91CF911F910F91FF90BF90AF909F901A
:103A40008F907F906F905F904F9008950E946B03CE
:103A5000DC01CB0184199509A609B709803D27E04F
:103A60009207A105B10550F4A5019401281B390B5B
:103A70004A0B5B0BCA01B9010E94CD1AFA94F110EE
:103A8000A9CF82E080939B010E942A1CDF91CF91F5
:103A90001F910F91FF90BF90AF909F908F907F905C
:103AA0006F905F904F900C947A1A4F925F926F9242
:103AB0007F928F929F92AF92BF92CF92DF92EF92BE
:103AC000FF920F931F93CF93DF93CDB7DEB762972B
:103AD0000FB6F894DEBF0FBECDBF9A8B898B809155
:103AE0002F0190913001853B910510F089899A89C9
:103AF000A989BA89A81BB90BB7FF03C0B195A195D5
:103B0000B1092CE130E00E948F3B6B017C0120E287
:103B1000C20E23E0D21EE11CF11C35E6C31639E1CA
:103B2000D306E104F10430F084E6C82E89E1D82EF2
:103B3000E12CF12C0E946B036D837E838F83988729
:103B4000DC01CB018455924FAF4FBF4F9C01AD01BB
:103B50002C0D3D1D4E1D5F1D2D873E874F87588BB9
:103B600081E08093240210E0412C512C3201198213
:103B70001A821B821C820E946B032D853E854F8515
:103B80005889621B730B840B950B97FF40C00E94F2
:103B90006B034B015C010E948F17A8950E94E908F6
:103BA00000919B01D501C4012D813E814F81588533
:103BB000821B930BA40BB50B89879A87AB87BC87B5
:103BC000002309F43FC08A3F9105A105B105D0F15A
:103BD000411451046104710451F0D501C4018419E8
:103BE0009509A609B7090597A105B10558F10E94E5
:103BF000BB098636934024F51F5F133008F10E94FD
:103C00009A1C40912F01509130015A8B498B898920
:103C10009A8962960FB6F894DEBF0FBECDBFDF91D2
:103C2000CF911F910F91FF90EF90DF90CF90BF90B9
:103C3000AF909F908F907F906F905F904F9008957E
:103C40002401350189859A85AB85BC858C159D0538
:103C5000AE05BF05A0F0002359F0133048F00E94D4
:103C60009A1CA0912F01B0913001BA8BA98BCFCFB4
:103C700029893A893093300120932F01C8CF898157
:103C80009A81AB81BC81892B8A2B8B2B79F0D50152
:103C9000C40129813A814B815C81821B930BA40B67
:103CA000B50B80359105A105B10598F080912E01E5
:103CB00081110E945D0B89899A890E945F0149895F
:103CC0005A895093300140932F0189829A82AB82A6
:103CD000BC8260E170E080E090E00E94CD1A4BCFA2
:103CE000CF93DF93C0911F02D0912002CF3BD1052B
:103CF0000CF04CC02A97D7FF02C0D0E0C0E0109271
:103D00006102109260020E94FC061092330210922F
:103D10003402109235021092360210923202109242
:103D2000310281E080939C010E9407071092920269
:103D30001092250210922602109227021092280259
:103D40000E945D0B0E948B07853B910508F0CE0118
:103D50009093300180932F0181E080932402CE0163
:103D60000E945F01CE010E94551DEC0110922402B9
:103D70000E942607811107C0CE010E94D70BD09365
:103D80003001C0932F01DF91CF910895C4EBD0E0B3
:103D9000B6CFCF93C82F60E08FE190E00E9457111B
:103DA00010921B0210926102109260021092160291
:103DB0001092150210921702109218021092190216
:103DC00010921A020E940707109224020E949D0876
:103DD000CC2399F182E00E948102892B71F50E9427
:103DE000890860E089E00E94AA020E94E9080E9416
:103DF000770CCC2321F181E080939C011092E101AA
:103E00001092E2011092E3011092E4011092DD01A0
:103E10001092DE011092DF011092E0011092D901A0
:103E20001092DA011092DB011092DC0181E08093A4
:103E3000D8011092D601CF91089561E0D3CF80913F
:103E40001F02909120029093300180932F01909156
:103E5000970281E0943608F480E080939B010E94F1
:103E6000701E80919B01823049F210929B01C6CF57
:103E70004F925F926F927F928F929F92AF92BF927A
:103E8000CF92DF92EF92FF920F931F93CF93DF9326
:103E9000CDB7DEB728970FB6F894DEBF0FBECDBF03
:103EA00090911C029923C9F010E0812F28960FB63B
:103EB000F894DEBF0FBECDBFDF91CF911F910F9160
:103EC000FF90EF90DF90CF90BF90AF909F908F903A
:103ED0007F906F905F904F900895082F0E94C908BF
:103EE000182F8111E1CF809130028111DDCF0E9426
:103EF0005C0A8823C9F28091600290916102892B4B
:103F000031F08091600290916102019769F6C09052
:103F10004C01D0904D01E0904E01F0904F01C11442
:103F2000D104E104F10409F4BFCF0E946B03809037
:103F3000500190905101A0905201B09053012B017B
:103F40003C01481859086A087B0853014201B7FC34
:103F5000ABCF4B015C018C189D08AE08BF0821E176
:103F6000821627E29206A104B10458F110924C0186
:103F700010924D0110924E0110924F011092B80113
:103F80001092B9011092BA011092BB010E948009EF
:103F90008091600290916102892B09F085CF809118
:103FA000330290913402A0913502B0913602892BF0
:103FB0008A2B8B2B09F078CF1092320210923102AB
:103FC00074CF20916002309161022130310509F4F3
:103FD000AFC02091600230916102232B09F0B7C07D
:103FE000ECED4E2E512C612C712C4D825E826F8235
:103FF0007886F0EACF2ED12CE12CF12C8C149D0484
:10400000AE04BF0408F450CF011116C0209148013E
:104010003091490140914A0150914B012B013C01E3
:10402000421A530A640A750AA30192012530310528
:104030004105510508F438CF609348017093490158
:1040400080934A0190934B010E94BB093C010E945E
:104050000E0A182F882309F427CF8D819E81AF8106
:10406000B885C80ED91EEA1EFB1E8C149D04AE0432
:10407000BF0408F419CF80916002909161022091F1
:104080000C0130910D01892B21F020910E0130910E
:104090000F018091600290916102892B09F066C046
:1040A00080910A0190E06216730654F42091BC01DD
:1040B0003091BD012F5F3F4F3093BD012093BC0174
:1040C0002091BC013091BD01281739070CF4ECCECA
:1040D00010924C0110924D0110924E0110924F011E
:1040E0001092B8011092B9011092BA011092BB015E
:1040F0001092BD011092BC01809130028111D5CE89
:104100001092BD011092BC018091600290916102F9
:10411000019779F590E9891691E09906A104B10417
:1041200040F50E94FC060E948D090E949A1CBDCE9B
:1041300048E7442E512C612C712C4D825E826F8297
:10414000788650E5C52ED12CE12CF12C57CF2AEFE3
:10415000422E512C612C712C4D825E826F827886AA
:1041600038ECC32ED12CE12CF12C48CF80910B01DF
:1041700099CF809131029091320218161906ECF411
:1041800082E090E0909332028093310281E080934C
:10419000300210929B018091B701823049F082E099
:1041A0008093B70167EB71E087E190E00E942C11EA
:1041B0000E942A1C0E947A1A78CE80913102909136
:1041C0003202019690933202809331020E94FC06E3
:1041D0000E948D090E946B03605E7C4F8F4F9F4F42
:1041E0006093500170935101809352019093530159
:1041F0008091600290916102019731F581E0809396
:104200002F0210922E02809160029091610203971A
:1042100011F00E94AE0C0E946B03605E7C4F8F4FCA
:104220009F4F6093330270933402809335029093D2
:1042300036020E94770C1092D2011092D301109294
:10424000D4011092D50131CE80916002909161022B
:10425000892B09F095CF81E080932E0210922F02D6
:104260000E94DE0DD8CFCF92DF92EF92FF920F9394
:104270001F93CF93DF932091600230916102232B33
:1042800039F0209160023091610221303105A1F5B1
:10429000EC0180912402811153C0CE010E94B50629
:1042A000882309F44BC180912E01882309F446C16B
:1042B0008091290290912A02A0912B02B0912C02A8
:1042C000892B8A2B8B2B09F039C180916002909148
:1042D0006102892BD1F481E080939C0180913102AD
:1042E00090913202892B41F41092330210923402E1
:1042F0001092350210923602DF91CF911F910F91EB
:10430000FF90EF90DF90CF900895809160029091A0
:104310006102019789F78091220290912302C817C8
:10432000D90751F78091310290913202181619067F
:104330001CF7109232021092310210922F02DCCF41
:10434000109224020E945D0B0E9465078C01853B40
:10435000910598F000912F0110913001053B110556
:1043600060F080912202909123028E01C817D90734
:1043700021F400911F0210912002053B110520F449
:104380001093300100932F0180919702843608F03A
:104390005DC0C8018C1B9D0B97FF03C09195819553
:1043A000910903970CF452C081E0809392020E941D
:1043B0006B036093930270939402809395029093A1
:1043C000960280916002909161029093090180931E
:1043D0000801D0930701C09306010E946B036B0193
:1043E0007C01DE01A01BB10BB7FF03C0B195A19505
:1043F000B1092CE130E00E948F3BDC01CB018057FA
:104400009E4FAF4FBF4F853C29E09207A105B105F4
:1044100020F084EC99E0A0E0B0E0803921E0920740
:10442000A105B10520F480E991E0A0E0B0E0C80E5C
:10443000D91EEA1EFB1EC0922902D0922A02E092E7
:104440002B02F0922C0210929C0156CF10929202F5
:10445000CE010E949803B5CF0E946B036C197D09B1
:104460008E099F0997FF8CC0809160029091610234
:104470000817190709F084C00E940E0A882339F032
:104480000E94260A882319F081E00E94381F80913B
:104490002E01811175C00E948B0797FD2DCF8C1BBB
:1044A0009D0B0396079708F46BC026CF80912F01D0
:1044B0009091300197FD1CC08C1B9D0B03960797B4
:1044C000B8F4809160029091610290930901809309
:1044D0000801D0930701C09306018091600290917A
:1044E0006102892B09F008CF81E080939C0104CF01
:1044F0008FEF9FEF909307018093060181E08093F7
:104500002402FACE0E946B036C197D098E099F0963
:1045100097FF50C0E2CF81E080939C0180913102EF
:1045200090913202892B09F053C0109233021092FD
:10453000340210923502109236024AC000910801EE
:10454000109109018091600290916102081719078A
:1045500009F0F6CE8091060190910701C817D9079E
:1045600009F0EECEC0902902D0902A02E0902B02F2
:10457000F0902C02C114D104E104F10409F06CCFD5
:104580001092290210922A0210922B0210922C02F1
:1045900080912E0181118ACFC0902502D0902602F1
:1045A000E0902702F0902802C114D104E104F10444
:1045B00009F0A8CFD0933001C0932F01CE010E9403
:1045C000D70B8091600290916102892B09F4A3CFEF
:1045D0008091C0019091C101019709F08DCE809129
:1045E0003002811189CE8091310290913202892B63
:1045F00009F082CE1092D2011092D3011092D40110
:104600001092D50179CECF92DF92EF92FF92CF93A5
:10461000DF93209160023091610223303105D1F1A6
:10462000EC01853B910514F0C4EBD0E0D7FF02C04C
:10463000D0E0C0E080913102909132021816190644
:104640006CF48091600290916102019739F480913D
:104650002202909123028C179D0719F18091240268
:10466000882309F4ACC01092920281E08093240266
:104670008FEF9FEF9093090180930801D09307017A
:10468000C09306011092290210922A0210922B0266
:1046900010922C02DF91CF91FF90EF90DF90CF909E
:1046A000089581E0809324020E945D0BCE010E9458
:1046B0005F01D0933001C0932F01809160029091EF
:1046C00061029093090180930801D0930701C09380
:1046D000060110929C010E946B036B017C010E94F9
:1046E00065079E01281B390BC901181619067CF5B0
:1046F0000E946507DE01A81BB90B30E9C30E31E04B
:10470000D31EE11CF11C2CE130E00E948F3BC60E51
:10471000D71EE81EF91E0E946B036C157D058E05E1
:104720009F05D8F48091600290916102019709F091
:10473000B1CF64E170E080E090E00E94CD1A0E9469
:104740008F1781E00E94381F882329F3A3CF0E948E
:104750006507DC01AC1BBD0BD0CF8091600290914E
:104760006102019709F096CF0E942607811192CF2E
:10477000CE010E94D70BCE010E94A506882309F422
:1047800089CF80919202811185CF809160029091B2
:104790006102019709F07ECF8091600290916102E1
:1047A0009093090180930801D0930701C0930601FB
:1047B00010929C0110923202109231026BCFCE0106
:1047C0000E94B506882309F44ECF80916002909133
:1047D00061029093090180930801D0930701C0936F
:1047E00006018091600290916102892BB1F481E011
:1047F00080939C0180912E0181114CCF80916002A9
:1048000090916102039709F445CFDF91CF91FF901A
:10481000EF90DF90CF900C94090510929C01EACFA5
:10482000EF92FF921F93CF93DF93182FC1E0D0E058
:10483000E82EF12C61E080E00E942E0C6CE271E029
:1048400080E090E00E94CD1A60E080E00E942E0C93
:10485000CE15DF0534F46CE271E080E090E00E9458
:10486000CD1A21968C2F8150811720F3DF91CF91A3
:104870001F91FF90EF9008954F925F926F927F92F9
:104880008F929F92AF92BF92CF92DF92EF92FF9260
:104890001F93CF93DF931092330210923402109241
:1048A00035021092360210923202109231021092AA
:1048B00021021092370210921C0281E080931E02A6
:1048C0000E949D0861E089E00E94AA02C0911F0237
:1048D000D0912002C53BD10514F0C4EBD0E0D7FF46
:1048E00002C0D0E0C0E00E948B077C01853B9105AF
:1048F000D0F0E0902F01F090300185EBE816F10444
:1049000090F08091600290916102019709F48EC04D
:10491000E0901F02F09020022AE0E21AF108F7FE70
:1049200002C0F12CE12C0E94FC061092330210927E
:1049300034021092350210923602109261021092E7
:10494000600210929C0111E0109324020E9407075C
:104950000E94770CF0923001E0922F01EC1AFD0AD0
:1049600082E0E80EF11C25E0E216F10408F063C0D5
:104970000E945D0BCE010E945F01CE010E94D70B09
:10498000D0933001C0932F011092090110920801B9
:10499000D0930701C093060110939C01109224024A
:1049A00061E080E00E942E0C82E00E94102483E0EF
:1049B00090E09093610280936002C1E0C0931B027B
:1049C00010921602109215020E946B036093170258
:1049D000709318028093190290931A0210921E028B
:1049E0000E940707C0939C01109292021092240229
:1049F0000E94130C0E940F0C61E08FE190E00E9476
:104A0000571160E080E00E942E0CDF91CF911F9142
:104A1000FF90EF90DF90CF90BF90AF909F908F90DE
:104A20007F906F905F904F900C94E908E090220285
:104A3000F090230278CF0E946B036B017C0120EE83
:104A4000C20E2EE2D21EE11CF11C10E0812C912C32
:104A500054010E946B036C197D098E099F0997FF11
:104A600019C00E942607811115C00E946B032B01FB
:104A70003C010E948F17A8950E94E9080E948B07AD
:104A800097FD13C08C1B9D0B0396079770F41F5F57
:104A9000153060F00E942607811103C0CE010E94EC
:104AA000D70B81E080939C0179CF10E081149104B1
:104AB000A104B10459F0D301C20188199909AA09C6
:104AC000BB0980359105A105B10590F080912E01BB
:104AD00081110E945D0BCE010E945F0110920901BD
:104AE00010920801D0930701C093060153014201BF
:104AF00060E170E080E090E00E94CD1AAACF809142
:104B0000D801811138C080916002909161020397B1
:104B100091F10E94260781112EC080916002909130
:104B20006102039741F182E00E9481020197E1F462
:104B300081E08093D8018093D6011092D901109220
:104B4000DA011092DB011092DC0160E088E00E9443
:104B5000AA0261E080E00E942E0C80916002909198
:104B60006102039731F408950E944D088111E0CF4E
:104B700008950C943C24089561E080E00E942E0C7E
:104B800085E00E94102480E00C94C91E1F920F92B1
:104B90000FB60F9211242F933F938F939F93AF9350
:104BA000BF938091390290913A02A0913B02B0915B
:104BB0003C023091380223E0230F2D3758F501963F
:104BC000A11DB11D209338028093390290933A02BF
:104BD000A0933B02B0933C0280913D0290913E0233
:104BE000A0913F02B09140020196A11DB11D80939A
:104BF0003D0290933E02A0933F02B0934002BF91CA
:104C0000AF919F918F913F912F910F900FBE0F9079
:104C10001F90189526E8230F0296A11DB11DD2CF33
:104C20001F920F920FB60F9211242F933F934F9321
:104C30005F936F937F938F939F93AF93BF93CF9324
:104C4000DF93EF93FF9380919501C0919401D0E0A1
:104C500087FF24C0109285001092840080919501F6
:104C60008F5F8093950180919501082E000C990B20
:104C70008C179D0724F4809195018C30C4F18091AC
:104C8000840090918500049680349C4908F47AC091
:104C90008091840090918500049676C08091950162
:104CA000082E000C990B8C179D07C4F6E091950116
:104CB0008E2FEE0F990BFC01EE0FFF1FE80FF91F6F
:104CC000E856FD4F808186FFC9CFE09195018E2F78
:104CD000EE0F990BFC01EE0FFF1FE80FF91FE856CE
:104CE000FD4F808160E08F730E94AA02B7CF2091B0
:104CF000840030918500E09195018E2FEE0F990B85
:104D0000FC01EE0FFF1FE80FF91FE856FD4F8181F0
:104D10009281820F931F9093890080938800E09185
:104D200095018E2FEE0F990BFC01EE0FFF1FE80F80
:104D3000F91FE856FD4F808186FF11C0E091950173
:104D40008E2FEE0F990BFC01EE0FFF1FE80FF91FDE
:104D5000E856FD4F808161E08F730E94AA02FF91A7
:104D6000EF91DF91CF91BF91AF919F918F917F9103
:104D70006F915F914F913F912F910F900FBE0F90C8
:104D80001F90189580E49CE9909389008093880097
:104D90008FEF80939501E3CF1F920F920FB60F9282
:104DA00011242F933F934F935F936F937F938F9330
:104DB0009F93AF93BF93EF93FF93E0919801F0918E
:104DC0009901309749F0A685B7858585968D91FF25
:104DD00014C09C918923A1F4FF91EF91BF91AF91F1
:104DE0009F918F917F916F915F914F913F912F9103
:104DF0000F900FBE0F901F9018959C91892361F71B
:104E0000A389B4899C918589809589238C9386890F
:104E100097890197F1F7608D718DA685B7855585C6
:104E200038E020E0CB010197F1F7822F90E09595D3
:104E30008795282F4C91452309F02068315091F730
:104E4000868D81FD20958091970190E001968F736A
:104E5000992730919601381799F0A0919701B0E009
:104E6000AC5ABE4F2C9380939701828D938D0197FE
:104E7000F1F7A389B4898C919589892B8C93ACCF58
:104E8000868D8160868FF1CFCF93DF932091600272
:104E9000309161022330310581F1C92FD82F109252
:104EA0006102109260020E94770C81E080932402DC
:104EB00010929C010E9407070E948B07853B910579
:104EC00048F080912F0190913001853B910510F0C1
:104ED0000E94D2099093300180932F018D2F9C2F37
:104EE000853B910514F084EB90E097FF02C090E0C1
:104EF00080E0DF91CF910C94D306DF91CF9108959C
:104F000020911F0230912002820F931F853B910553
:104F100008F520911F023091200228173907D1F09F
:104F20009093200280931F026FE172E083E090E093
:104F30000E94051180911F02909120020E94442737
:104F40001092D2011092D3011092D4011092D50187
:104F50000C942C180895CF93DF93CDB7DEB7A497A8
:104F60000FB6F894DEBF0FBECDBF789484B58260D3
:104F700084BD84B5816084BD85B5826085BD85B5FD
:104F8000816085BD80916E00816080936E0010927B
:104F900081008091810082608093810080918100F6
:104FA0008160809381008091800081608093800087
:104FB0008091B10084608093B1008091B0008160E5
:104FC0008093B00080917A00846080937A00809111
:104FD0007A00826080937A0080917A008160809369
:104FE0007A0080917A00806880937A001092C100E4
:104FF00014BE0FB6F894A8958091600088618093E4
:105000006000109260000FBE10925C0210925B0272
:1050100010925A021092590210925802109257029E
:105020008FE190E090935E0280935D0290914D023B
:10503000963108F047C021E030E0309358022093C9
:1050400057022DE130E030935A02209359022DE0AF
:1050500030E030935C0220935B022091680084E092
:10506000983048F031E09E3008F430E081E001C033
:10507000880F3A95EAF7822B809368002DE630E09E
:10508000983050F02BE630E09E3030F02CE630E0E7
:10509000963110F030E020E0309355022093540216
:1050A000292F30E0983008F062C281E001C0880FFB
:1050B0009A95EAF78093560280915D0290915E0284
:1050C0000197F1F780915B0290915C02892B49F185
:1050D000E0919801F091990102E0E134F00709F1C3
:1050E000309739F0A389B4899C918589809589236B
:1050F0008C9380915F028E7F80935F021092970164
:105100001092960181E492E0909399018093980126
:10511000E0915402F0915502808190915602892BC2
:10512000808310926102109260021092230210920A
:10513000220280E590E09093D1018093D0018EE629
:1051400090E09093CF018093CE01109220021092B4
:105150001F021092CD011092CC011092C801109242
:10516000C9011092CA011092CB0184E690E0A0E040
:10517000B0E08093C4019093C501A093C601B093A1
:10518000C7011092C3011092C2011092C101109286
:10519000C0011092BF011092BE011092BD01109289
:1051A000BC011092B8011092B9011092BA0110928C
:1051B000BB01109233021092340210923502109209
:1051C0003602109232021092310210923002109286
:1051D000B7011092D2011092D3011092D401109213
:1051E000D5011092B3011092B4011092B501109242
:1051F000B60110921B021092AF011092B0011092F2
:10520000B1011092B2011092E6011092E7011092E2
:10521000E8011092E9011092E50110923702109214
:10522000AE011092AA011092AB011092AC01109243
:10523000AD011092A6011092A7011092A801109240
:10524000A9011092A50111E0109311011092A4017F
:1052500010921D0210921C02809397021092160267
:105260001092150210921702109218021092190251
:1052700010921A021092A30161E088E00E94D80205
:1052800061E08AE00E94D80260E08AE00E94AA02FF
:1052900061E08CE00E94D80260E08CE00E94AA02EB
:1052A00062E085E00E94D80261E089E00E94D802B5
:1052B00061E08BE00E94D8020E940F0C60E082E067
:1052C0000E94D80282E00E948102019709F05CC12D
:1052D0001093AE0181E08093110181E08093A401DD
:1052E00060E08EE00E94D8026FE172E083E090E01F
:1052F0000E94CC106EEB71E089E090E00E94CC102F
:105300008091BE019091BF01892B99F08091BE01DF
:105310009091BF01019769F01092BF011092BE01F8
:105320001A821982BE016F5F7F4F89E090E00E9470
:10533000051180911F029091200297FD07C0809176
:105340001F0290912002853B910564F086E990E070
:105350009093200280931F026FE172E083E090E05F
:105360000E94051111E010932E011092610210921B
:10537000600262E272E081E090E00E94CC106CEC8E
:1053800071E085E090E00E94CC1060EC71E087E075
:1053900090E00E94CC1062EA71E08DE190E00E9402
:1053A000E0108091A201823040F01093A20162EAE5
:1053B00071E08DE190E00E942C1161EA71E08FE0D4
:1053C00090E00E94E0108091A101823010F01092D4
:1053D000A10167E972E089E190E00E94E01080910C
:1053E00097028A3020F080919702853648F084E653
:1053F0008093970267E972E089E190E00E942C11A6
:105400001982BE016F5F7F4F87E190E00E94E0103C
:1054100089819FEF980F923008F080E08093B70168
:105420000E94441110923002109232021092310206
:10543000109233021092340210923502109236020A
:105440000E948D0967ED71E08CE190E00E94E01010
:105450008091D701882369F08091D701813049F08C
:1054600081E08093D70167ED71E08CE190E00E94CC
:105470002C11809122029091230297FD07C0809108
:10548000220290912302853B910564F080E590E033
:10549000909323028093220262E272E081E090E026
:1054A0000E9405111982BE016F5F7F4F8FE190E06E
:1054B0000E94E0108981823030F0198260E08FE133
:1054C00090E00E945711D9800E946B0360517A4A84
:1054D0008F4F9F4F60939D0170939E0180939F011A
:1054E0009093A0010FB6F894A89580916000886110
:1054F00080936000109260000FBE88E199E20FB6C1
:10550000F894A895809360000FBE9093600060E2CD
:1055100073E080E090E00E94CD1ADD20B9F183E0D5
:1055200090E0909361028093600211E010931B025F
:1055300010921602109215020E946B0360931702DC
:10554000709318028093190290931A0210939C0191
:1055500010922402109292020E9407070E94130CDC
:105560000E940F0C10932E0110929B01AFC09E3031
:1055700040F42850310981E001C0880F2A95EAF7EC
:1055800099CD2E503109F7CF80E0A5CE8091BF0292
:10559000982F9D7F953A09F074C11092BF02873A07
:1055A00011F40C94713781E02091970291E0243638
:1055B00008F490E090939B0181110C9473378091D3
:1055C000BE019091BF01892B11F40C94733719829D
:1055D0001A821B821C8215E00E949D06CE01019654
:1055E0000E94FD19882309F44EC10E9495060E946D
:1055F0009D060E94FC061092330210923402109213
:10560000350210923602109221020E948B078C0103
:10561000853B910558F000912F0110913001053B19
:10562000110520F000911F0210912002EE24E39456
:10563000F12CF0926102E0926002CC24C394C092FB
:10564000AE010E94070710929C0110933001009355
:105650002F01C092240280912202909123020E9485
:10566000D30680912202909123020E94551D109230
:1056700024020E942607811120C0F0920901E092C5
:105680000801809122029091230290930701809358
:10569000060180919202811110C00E948B078091B7
:1056A0002202909123020E94D70B809122029091B6
:1056B00023029093300180932F010E949D060E9447
:1056C000770C80919B01823009F04ECF0E94770CBD
:1056D0000E949D08109237020E946B036059784E19
:1056E0008F4F9F4F60939D0170939E0180939F0108
:1056F0009093A0011092E1011092E2011092E30157
:105700001092E4011092DD011092DE011092DF018F
:105710001092E0011092D9011092DA011092DB018F
:105720001092DC011092D8011092D60188E290E02C
:105730000E94EA10082F8FE4800F843008F0AFC079
:1057400068E171E089E290E00E94CC1066E171E0CE
:105750008BE290E00E94CC108FE290E00E94EA1071
:1057600080939A01833008F0D0C180911801909104
:105770001901C29734F482E390E090931901809369
:1057800018018091180190911901833C914034F0E7
:1057900082EC91E090931901809318018091160199
:1057A0009091170197FF04C01092170110921601F3
:1057B0008091160190911701893C910534F088EC95
:1057C00090E090931701809316018CE390E00E9483
:1057D000EA1080931A018B3018F081E080931A014F
:1057E0008DE390E00E94EA10182F833008F011E05A
:1057F00010931001043B09F08BC11E821D821A8296
:105800001982BE016B5F7F4F8EE390E00E94CC1047
:10581000BE016F5F7F4F80E490E00E94CC1082E475
:1058200090E00E94EA10082F83E490E00E94EA10C2
:105830004D815E819A0128553240283A314008F066
:1058400067C129813A81B90168557240683A71404F
:1058500008F05EC19FEF900F983008F059C19FEF9C
:10586000980F983008F054C150930F0140930E01E7
:1058700030930D0120930C0100930B0180930A01DA
:1058800021C080E091CE0E949506CE0101960E9433
:10589000FD198111ACCE115009F09ECEA8CE88E73B
:1058A00090E0909319018093180183E290E0909327
:1058B00017018093160110929A0181E080931A01DA
:1058C0000E9459091092100210920A020E946B0362
:1058D000685A7D4F8F4F9F4F609311027093120251
:1058E000809313029093140280E390E00E94EA10E8
:1058F000813C09F088C018861F821E821D821A8290
:105900001982BE01695F7F4F82E390E00E94CC1054
:10591000BE016B5F7F4F84E390E00E94CC10BE011C
:105920006F5F7F4F86E390E00E94CC106F81788597
:1059300009811A81ED80FE806115710539F4E11449
:10594000F10421F40115110509F45DC0072E000CC6
:10595000880B990B0E94F23920E030E04AE754E4CA
:105960000E944839609306027093070280930802F0
:1059700090930902B701FF0C880B990B0E94F23932
:1059800020E030E04AE754E40E9448396093020284
:10599000709303028093040290930502B801110FE3
:1059A000880B990B0E94F23920E030E04AE754E47A
:1059B0000E9448396093290170932A0180932B013A
:1059C00090932C0181E390E00E94EA108093010201
:1059D000833010F01092010281E080930A0280E08F
:1059E00090E0A0E8BFE38093250190932601A09367
:1059F0002701B09328018093210190932201A09365
:105A00002301B093240160E570E080E090E00E9403
:105A10003903A89513E05BE0E52EF12C68E4C62E6F
:105A200074E0B72E80911002811132C0A8951092B7
:105A3000BC0061E083E10E94D80209E061E083E1FB
:105A40000E94AA02C7010197F1F760E083E10E947A
:105A5000AA02C7010197F1F7015081F762E082E1E4
:105A60000E94D80262E083E10E94D8021092B9003D
:105A7000C092B800B092BC000E944306811108C0D9
:105A800062E370E080E090E00E943903115051F62B
:105A90000E946B0360930C0270930D0280930E02C0
:105AA00090930F0260E0D11001C061E089E00E9494
:105AB000AA020E94E908A8950E948F170E946B0312
:105AC0006B017C0185E00E9481028C010E94260707
:105AD000882321F11092E1011092E2011092E3017A
